BL51 BANKED LINKER/LOCATER V6.22.2.0                                                    09/18/2024  10:06:51  PAGE 1


BL51 BANKED LINKER/LOCATER V6.22.2.0, INVOKED BY:
D:\KEIL_MDK\C51\BIN\BL51.EXE .\Output\STARTUP.obj, .\Output\main.obj, .\Output\glh_app_process.obj, .\Output\glh_led_mod
>> e.obj, .\Output\glh_rgb.obj, .\Output\glh_sys_tick.obj, .\Output\glh_pwm.obj, .\Output\glh_lt8920l.obj, .\Output\glh_
>> flash.obj, .\Output\glh_delay.obj, .\Output\glh_watchdog.obj, .\Output\glh_over_current_protect.obj, .\Output\sys.obj
>> , .\Output\eeprom.obj TO .\Output\Project PRINT (.\LST\Project.m51) RAMSIZE (256) DISABLEWARNING (16) XDATA (0X0000-0
>> X03FF)


MEMORY MODEL: LARGE WITH FLOATING POINT ARITHMETIC


INPUT MODULES INCLUDED:
  .\Output\STARTUP.obj (?C_STARTUP)
  .\Output\main.obj (MAIN)
  .\Output\glh_app_process.obj (GLH_APP_PROCESS)
  .\Output\glh_led_mode.obj (GLH_LED_MODE)
  .\Output\glh_rgb.obj (GLH_RGB)
  .\Output\glh_sys_tick.obj (GLH_SYS_TICK)
  .\Output\glh_pwm.obj (GLH_PWM)
  .\Output\glh_lt8920l.obj (GLH_LT8920L)
  .\Output\glh_flash.obj (GLH_FLASH)
  .\Output\glh_delay.obj (GLH_DELAY)
  .\Output\glh_watchdog.obj (GLH_WATCHDOG)
  .\Output\glh_over_current_protect.obj (GLH_OVER_CURRENT_PROTECT)
  .\Output\sys.obj (SYS)
  .\Output\eeprom.obj (EEPROM)
  D:\KEIL_MDK\C51\LIB\C51FPL.LIB (?C?FPMUL)
  D:\KEIL_MDK\C51\LIB\C51FPL.LIB (?C?FPDIV)
  D:\KEIL_MDK\C51\LIB\C51FPL.LIB (?C?FCAST)
  D:\KEIL_MDK\C51\LIB\C51FPL.LIB (?C?CASTF)
  D:\KEIL_MDK\C51\LIB\C51FPL.LIB (?C?FPGETOPN)
  D:\KEIL_MDK\C51\LIB\C51L.LIB (?C_INIT)
  D:\KEIL_MDK\C51\LIB\C51L.LIB (?C?COPY)
  D:\KEIL_MDK\C51\LIB\C51L.LIB (?C?CLDPTR)
  D:\KEIL_MDK\C51\LIB\C51L.LIB (?C?CLDOPTR)
  D:\KEIL_MDK\C51\LIB\C51L.LIB (?C?CSTPTR)
  D:\KEIL_MDK\C51\LIB\C51L.LIB (?C?CSTOPTR)
  D:\KEIL_MDK\C51\LIB\C51L.LIB (?C?IMUL)
  D:\KEIL_MDK\C51\LIB\C51L.LIB (?C?UIDIV)
  D:\KEIL_MDK\C51\LIB\C51L.LIB (?C?IILDX)
  D:\KEIL_MDK\C51\LIB\C51L.LIB (?C?ILDIX)
  D:\KEIL_MDK\C51\LIB\C51L.LIB (?C?LMUL)
  D:\KEIL_MDK\C51\LIB\C51L.LIB (?C?ULDIV)
  D:\KEIL_MDK\C51\LIB\C51L.LIB (?C?LNEG)
  D:\KEIL_MDK\C51\LIB\C51L.LIB (?C?ULCMP)
  D:\KEIL_MDK\C51\LIB\C51L.LIB (?C?ULSHR)
  D:\KEIL_MDK\C51\LIB\C51L.LIB (?C?LSHL)
  D:\KEIL_MDK\C51\LIB\C51L.LIB (?C?LSTXDATA)
  D:\KEIL_MDK\C51\LIB\C51L.LIB (?C?LSTKXDATA)
  D:\KEIL_MDK\C51\LIB\C51L.LIB (?C?CCASE)
  D:\KEIL_MDK\C51\LIB\C51L.LIB (?C?ICALL)
  D:\KEIL_MDK\C51\LIB\C51L.LIB (?C?LIMUL)
  D:\KEIL_MDK\C51\LIB\C51L.LIB (?C?MEMCMP)
  D:\KEIL_MDK\C51\LIB\C51L.LIB (?C?MEMSET)


LINK MAP OF MODULE:  .\Output\Project (?C_STARTUP)

BL51 BANKED LINKER/LOCATER V6.22.2.0                                                  09/18/2024  10:06:51  PAGE 2



            TYPE    BASE      LENGTH    RELOCATION   SEGMENT NAME
            -----------------------------------------------------

            * * * * * * *   D A T A   M E M O R Y   * * * * * * *
            REG     0000H     0008H     ABSOLUTE     "REG BANK 0"
            DATA    0008H     0004H     UNIT         ?DT?GLH_SYS_TICK
            DATA    000CH     0002H     UNIT         ?DT?MODIFY_HIRC_24?SYS
            DATA    000EH     0002H     UNIT         ?DT?MODIFY_HIRC_166?SYS
            DATA    0010H     0002H     UNIT         _DATA_GROUP_
                    0012H     000EH                  *** GAP ***
            BIT     0020H.0   0000H.1   UNIT         ?BI?SYS
                    0020H.1   0000H.7                *** GAP ***
            IDATA   0021H     0001H     UNIT         ?STACK

            * * * * * * *  X D A T A   M E M O R Y  * * * * * * *
            XDATA   0000H     022CH     UNIT         ?XD?GLH_APP_PROCESS
            XDATA   022CH     00A7H     UNIT         _XDATA_GROUP_
            XDATA   02D3H     0080H     UNIT         ?XD?EEPROM
            XDATA   0353H     0040H     UNIT         ?XD?GLH_LED_MODE
            XDATA   0393H     0008H     UNIT         ?XD?GLH_RGB
            XDATA   039BH     0006H     UNIT         ?XD?_GLHFLASH_ERASEBLOCK?GLH_FLASH
            XDATA   03A1H     0005H     UNIT         ?XD?_GLHLM_STATICMODEIMMEDIATELY?GLH_LED_MODE
            XDATA   03A6H     0005H     UNIT         ?XD?_GLHLASH_WRITEBYTE?GLH_FLASH
            XDATA   03ABH     0005H     UNIT         ?XD?GLH_OVER_CURRENT_PROTECT
            XDATA   03B0H     0004H     UNIT         ?XD?_GLHLM_SETCOLORBUFF?GLH_LED_MODE
            XDATA   03B4H     0004H     UNIT         ?XD?_GLHFLASH_READBYTE?GLH_FLASH
            XDATA   03B8H     0004H     UNIT         ?XD?_WRITE_DATAFLASH_BYTE?EEPROM
            XDATA   03BCH     0003H     UNIT         ?XD?GLH_LT8920L

            * * * * * * *   C O D E   M E M O R Y   * * * * * * *
            CODE    0000H     0003H     ABSOLUTE     
            CODE    0003H     0008H     UNIT         ?PR?MAIN?MAIN
            CODE    000BH     0003H     ABSOLUTE     
            CODE    000EH     002AH     UNIT         ?PR?GLHAPS_MAINTHREAD?GLH_APP_PROCESS
            CODE    0038H     0003H     UNIT         ?PR?IINITCLK?GLH_SYS_TICK
            CODE    003BH     0003H     ABSOLUTE     
            CODE    003EH     0043H     UNIT         ?PR?_ICWSET?GLH_APP_PROCESS
            CODE    0081H     0001H     UNIT         ?PR?ISLECTSCENCE?GLH_APP_PROCESS
            CODE    0082H     0001H     UNIT         ?PR?ISTEPLESSBRIGHTNESSADJUSTMENTMAINTHREAD?GLH_APP_PROCESS
            CODE    0083H     0003H     ABSOLUTE     
            CODE    0086H     0836H     UNIT         ?C?LIB_CODE
            CODE    08BCH     0486H     UNIT         ?PR?_IRF24GDATAHANDLE?GLH_APP_PROCESS
            CODE    0D42H     036FH     UNIT         ?C_INITSEG
            CODE    10B1H     0301H     UNIT         ?PR?_IRECEIVESYNCHANDLE?GLH_APP_PROCESS
            CODE    13B2H     02A2H     UNIT         ?PR?_GLHPWM_SET?GLH_PWM
            CODE    1654H     028EH     UNIT         ?PR?_WRITEDATATOONEPAGE?EEPROM
            CODE    18E2H     0262H     UNIT         ?PR?GLH_LED_MODE
            CODE    1B44H     022EH     UNIT         ?PR?GLH_APP_PROCESS
            CODE    1D72H     01B8H     UNIT         ?PR?IREFRESHSYNCDATA?GLH_APP_PROCESS
            CODE    1F2AH     0169H     UNIT         ?PR?ISTATIC?GLH_LED_MODE
            CODE    2093H     0143H     UNIT         ?PR?_WRITE_DATAFLASH_BYTE?EEPROM
            CODE    21D6H     011EH     UNIT         ?PR?IBNFADEMAINTHREAD?GLH_LED_MODE
            CODE    22F4H     0116H     UNIT         ?PR?_ISETTIMINGPOWEROFF?GLH_APP_PROCESS
            CODE    240AH     010CH     UNIT         ?PR?_ISAVESCENCE?GLH_APP_PROCESS
            CODE    2516H     0103H     UNIT         ?PR?IFADE?GLH_LED_MODE
            CODE    2619H     00F1H     UNIT         ?PR?ISENDSYNCMAINTHREAD?GLH_APP_PROCESS
BL51 BANKED LINKER/LOCATER V6.22.2.0                                                  09/18/2024  10:06:51  PAGE 3


            CODE    270AH     00E6H     UNIT         ?PR?_IEXCUTESCENCE?GLH_APP_PROCESS
            CODE    27F0H     00CEH     UNIT         ?PR?_GLHPWM_INIT?GLH_PWM
            CODE    28BEH     00C8H     UNIT         ?CO?GLH_LED_MODE
            CODE    2986H     00BEH     UNIT         ?PR?_WRITE_DATAFLASH_ARRAY?EEPROM
            CODE    2A44H     00B9H     UNIT         ?PR?RF24G_INIT?GLH_LT8920L
            CODE    2AFDH     00B2H     UNIT         ?PR?IONOFFFADEMAINTHREAD?GLH_LED_MODE
            CODE    2BAFH     009AH     UNIT         ?C_C51STARTUP
            CODE    2C49H     0096H     UNIT         ?PR?IRESETSCCONFIG?GLH_APP_PROCESS
            CODE    2CDFH     008BH     UNIT         ?PR?_DATADECRYPTIONPROCESSING?GLH_APP_PROCESS
            CODE    2D6AH     0087H     UNIT         ?PR?GLHAPS_INIT?GLH_APP_PROCESS
            CODE    2DF1H     0084H     UNIT         ?PR?IRF24GRECEIVEMAINTHREAD?GLH_APP_PROCESS
            CODE    2E75H     0080H     UNIT         ?PR?_IRGBFLASH?GLH_APP_PROCESS
            CODE    2EF5H     007DH     UNIT         ?PR?IBTH?GLH_LED_MODE
            CODE    2F72H     0078H     UNIT         ?PR?_TIMER3_INT_INITIAL?GLH_SYS_TICK
            CODE    2FEAH     0068H     UNIT         ?PR?IFIREWORKS?GLH_LED_MODE
            CODE    3052H     0067H     UNIT         ?PR?_RF24G_TX?GLH_LT8920L
            CODE    30B9H     0067H     UNIT         ?PR?_READ_DATAFLASH_ARRAY?EEPROM
            CODE    3120H     0065H     UNIT         ?PR?IFLASH?GLH_LED_MODE
            CODE    3185H     0063H     UNIT         ?PR?_RF24G_READRXDATA?GLH_LT8920L
            CODE    31E8H     005FH     UNIT         ?PR?PORT_IRQHANDLER?GLH_OVER_CURRENT_PROTECT
            CODE    3247H     0059H     UNIT         ?PR?IJUMP?GLH_LED_MODE
            CODE    32A0H     0055H     UNIT         ?PR?_GLHRGB_SETCOLOR?GLH_RGB
            CODE    32F5H     0054H     UNIT         ?PR?_GLHLM_STATICMODEIMMEDIATELY?GLH_LED_MODE
            CODE    3349H     0054H     UNIT         ?PR?GLH_FLASH
            CODE    339DH     0052H     UNIT         ?PR?_GLHFLASH_READBYTES?GLH_FLASH
            CODE    33EFH     0052H     UNIT         ?PR?_GLHFLASH_WRITEBYTES?GLH_FLASH
            CODE    3441H     0051H     UNIT         ?PR?GLH_LT8920L
            CODE    3492H     004FH     UNIT         ?PR?IREFRESHASCONFIG?GLH_APP_PROCESS
            CODE    34E1H     0043H     UNIT         ?PR?_GLHDL_DELAYMS?GLH_DELAY
            CODE    3524H     0042H     UNIT         ?PR?_GLHLM_STATICMODE?GLH_LED_MODE
            CODE    3566H     0042H     UNIT         ?PR?MODIFY_HIRC_24?SYS
            CODE    35A8H     0042H     UNIT         ?PR?MODIFY_HIRC_166?SYS
            CODE    35EAH     0041H     UNIT         ?PR?GLHOCP_MAINTHREAD?GLH_OVER_CURRENT_PROTECT
            CODE    362BH     0040H     UNIT         ?PR?ICWDEC?GLH_APP_PROCESS
            CODE    366BH     003EH     UNIT         ?PR?_IBNSET?GLH_APP_PROCESS
            CODE    36A9H     003EH     UNIT         ?PR?_GLHRGB_SETBN?GLH_RGB
            CODE    36E7H     003CH     UNIT         ?PR?_GLHRGB_SETONOFFVALUE?GLH_RGB
            CODE    3723H     003BH     UNIT         ?PR?ISAVESCCONFIGMAINTHREAD?GLH_APP_PROCESS
            CODE    375EH     003AH     UNIT         ?PR?GLHWD_INIT?GLH_WATCHDOG
            CODE    3798H     0038H     UNIT         ?PR?TIMER3_ISR?GLH_SYS_TICK
            CODE    37D0H     002FH     UNIT         ?PR?IBNDEC?GLH_APP_PROCESS
            CODE    37FFH     0001H     UNIT         ?PR?GLHST_WAKEUP?GLH_SYS_TICK
            CODE    3800H     0001H     UNIT         ?PR?GLHST_PAUSE?GLH_SYS_TICK
            CODE    3801H     0100H     ABSOLUTE     
            CODE    3901H     0037H     UNIT         ?PR?MODIFY_HIRC_16?SYS
            CODE    3938H     0036H     UNIT         ?PR?IINITSCCONFIG?GLH_APP_PROCESS
            CODE    396EH     0034H     UNIT         ?PR?ICWINC?GLH_APP_PROCESS
            CODE    39A2H     002EH     UNIT         ?PR?IBNINC?GLH_APP_PROCESS
            CODE    39D0H     002AH     UNIT         ?PR?_IGETCHECKCRC?GLH_APP_PROCESS
            CODE    39FAH     002AH     UNIT         ?PR?_GLHLM_JUMPMODE?GLH_LED_MODE
            CODE    3A24H     002AH     UNIT         ?PR?GLH_RGB
            CODE    3A4EH     0028H     UNIT         ?PR?_ISPIWRITEBYTE?GLH_LT8920L
            CODE    3A76H     0025H     UNIT         ?PR?ISPIREADBYTE?GLH_LT8920L
            CODE    3A9BH     0023H     UNIT         ?PR?RF24G_CHANGE_0X38?GLH_LT8920L
            CODE    3ABEH     0023H     UNIT         ?PR?SYS
            CODE    3AE1H     0022H     UNIT         ?PR?_IGETCHECKSUM?GLH_APP_PROCESS
            CODE    3B03H     0022H     UNIT         ?PR?_GLHLM_FLASHMODE?GLH_LED_MODE
BL51 BANKED LINKER/LOCATER V6.22.2.0                                                  09/18/2024  10:06:51  PAGE 4


            CODE    3B25H     0021H     UNIT         ?PR?IRESETPARAMS?GLH_LED_MODE
            CODE    3B46H     0020H     UNIT         ?PR?IRF24GCHANNELCHANGEMAINTHREAD?GLH_APP_PROCESS
            CODE    3B66H     0020H     UNIT         ?PR?_RF24G_ENTERRXMODE?GLH_LT8920L
            CODE    3B86H     001FH     UNIT         ?PR?ITIMINGPOWEROFFMAINTHREAD?GLH_APP_PROCESS
            CODE    3BA5H     001FH     UNIT         ?PR?_GLHLM_FADEMODE?GLH_LED_MODE
            CODE    3BC4H     001EH     UNIT         ?PR?GLHLM_RENDERPROC?GLH_LED_MODE
            CODE    3BE2H     001EH     UNIT         ?PR?_GLHLM_SETCOLORBUFF?GLH_LED_MODE
            CODE    3C00H     001EH     UNIT         ?PR?_GLHLM_FIREWORKSMODE?GLH_LED_MODE
            CODE    3C1EH     001DH     UNIT         ?PR?_GLHLM_SETSPEED?GLH_LED_MODE
            CODE    3C3BH     001BH     UNIT         ?PR?TIMER0_ISR?GLH_APP_PROCESS
            CODE    3C56H     001AH     UNIT         ?PR?_MYCROL?GLH_APP_PROCESS
            CODE    3C70H     001AH     UNIT         ?PR?_GLHOCP_EVENTCALLBACK?GLH_APP_PROCESS
            CODE    3C8AH     001AH     UNIT         ?PR?ISENDSYNCDATA?GLH_APP_PROCESS
            CODE    3CA4H     0019H     UNIT         ?PR?_RF24G_READREG?GLH_LT8920L
            CODE    3CBDH     0018H     UNIT         ?CO?GLH_APP_PROCESS
            CODE    3CD5H     0018H     UNIT         ?PR?_GLHLM_SETBN?GLH_LED_MODE
            CODE    3CEDH     0018H     UNIT         ?PR?_RF24G_WRITEREG?GLH_LT8920L
            CODE    3D05H     0018H     UNIT         ?PR?RF24G_ISTXORRXCOMPLETE?GLH_LT8920L
            CODE    3D1DH     0017H     UNIT         ?PR?ICHECKISCOMPLETE?GLH_LED_MODE
            CODE    3D34H     0017H     UNIT         ?PR?_GLHLM_BREATHMODE?GLH_LED_MODE
            CODE    3D4BH     0017H     UNIT         ?PR?_GLHFLASH_ERASEBLOCK?GLH_FLASH
            CODE    3D62H     0016H     UNIT         ?PR?_GLHDL_DELAYUS?GLH_DELAY
            CODE    3D78H     0014H     UNIT         ?PR?GLHWD_CLEAR?GLH_WATCHDOG
            CODE    3D8CH     0013H     UNIT         ?PR?_GLHFLASH_READBYTE?GLH_FLASH
            CODE    3D9FH     0010H     UNIT         ?PR?_GLHFLASH_READDEVID?GLH_FLASH
            CODE    3DAFH     000FH     UNIT         ?PR?ITIMERINIT?GLH_SYS_TICK
            CODE    3DBEH     000EH     UNIT         ?PR?GLHLM_GETMODEISCOMPLETE?GLH_LED_MODE
            CODE    3DCCH     000DH     UNIT         ?PR?GLHOCP_INIT?GLH_OVER_CURRENT_PROTECT
            CODE    3DD9H     0008H     UNIT         ?PR?_GLHLASH_WRITEBYTE?GLH_FLASH
            CODE    3DE1H     0008H     UNIT         ?PR?_READ_APROM_BYTE?EEPROM
            CODE    3DE9H     0006H     UNIT         ?PR?_IAUTOSLECT?GLH_APP_PROCESS
            CODE    3DEFH     0006H     UNIT         ?PR?GLHLM_INIT?GLH_LED_MODE
            CODE    3DF5H     0006H     UNIT         ?PR?_GLHLM_SETSWITCHSTATUS?GLH_LED_MODE
            CODE    3DFBH     0006H     UNIT         ?PR?GLHST_INIT?GLH_SYS_TICK
            CODE    3E01H     0005H     UNIT         ?PR?GLHRGB_INIT?GLH_RGB
            CODE    3E06H     0001H     UNIT         ?PR?GLHST_START?GLH_SYS_TICK
            CODE    3E07H     0001H     UNIT         ?PR?GLHFLASH_INIT?GLH_FLASH
            CODE    3E08H     0001H     UNIT         ?PR?GLHWD_START?GLH_WATCHDOG
            CODE    3E09H     0001H     UNIT         ?PR?GLHWD_STOP?GLH_WATCHDOG



OVERLAY MAP OF MODULE:   .\Output\Project (?C_STARTUP)


SEGMENT                                            DATA_GROUP          XDATA_GROUP
  +--> CALLED SEGMENT                            START    LENGTH     START    LENGTH
------------------------------------------------------------------------------------
?C_C51STARTUP                                    -----    -----      -----    -----
  +--> ?PR?MAIN?MAIN
  +--> ?C_INITSEG

?PR?MAIN?MAIN                                    -----    -----      -----    -----
  +--> ?PR?GLHAPS_INIT?GLH_APP_PROCESS
  +--> ?PR?GLHAPS_MAINTHREAD?GLH_APP_PROCESS

?PR?GLHAPS_INIT?GLH_APP_PROCESS                  -----    -----      022CH    0004H
BL51 BANKED LINKER/LOCATER V6.22.2.0                                                  09/18/2024  10:06:51  PAGE 5


  +--> ?CO?GLH_APP_PROCESS
  +--> ?PR?GLH_APP_PROCESS
  +--> ?PR?GLHST_INIT?GLH_SYS_TICK
  +--> ?PR?GLHLM_INIT?GLH_LED_MODE
  +--> ?PR?RF24G_INIT?GLH_LT8920L
  +--> ?PR?_RF24G_ENTERRXMODE?GLH_LT8920L
  +--> ?PR?GLHWD_INIT?GLH_WATCHDOG
  +--> ?PR?IINITSCCONFIG?GLH_APP_PROCESS
  +--> ?PR?GLHOCP_INIT?GLH_OVER_CURRENT_PROTECT
  +--> ?PR?_GLHFLASH_READDEVID?GLH_FLASH

?PR?GLHST_INIT?GLH_SYS_TICK                      -----    -----      -----    -----
  +--> ?PR?IINITCLK?GLH_SYS_TICK
  +--> ?PR?ITIMERINIT?GLH_SYS_TICK

?PR?IINITCLK?GLH_SYS_TICK                        -----    -----      -----    -----
  +--> ?PR?MODIFY_HIRC_16?SYS

?PR?MODIFY_HIRC_16?SYS                           0010H    0002H      -----    -----
  +--> ?PR?SYS

?PR?ITIMERINIT?GLH_SYS_TICK                      -----    -----      -----    -----
  +--> ?PR?_TIMER3_INT_INITIAL?GLH_SYS_TICK

?PR?_TIMER3_INT_INITIAL?GLH_SYS_TICK             -----    -----      0230H    0002H

?PR?GLHLM_INIT?GLH_LED_MODE                      -----    -----      -----    -----
  +--> ?PR?GLHRGB_INIT?GLH_RGB
  +--> ?PR?IRESETPARAMS?GLH_LED_MODE

?PR?GLHRGB_INIT?GLH_RGB                          -----    -----      -----    -----
  +--> ?PR?_GLHPWM_INIT?GLH_PWM

?PR?IRESETPARAMS?GLH_LED_MODE                    -----    -----      -----    -----
  +--> ?PR?GLH_LED_MODE

?PR?GLH_LED_MODE                                 -----    -----      -----    -----
  +--> ?CO?GLH_LED_MODE

?PR?RF24G_INIT?GLH_LT8920L                       -----    -----      0230H    0004H
  +--> ?PR?GLH_LT8920L
  +--> ?PR?_RF24G_READREG?GLH_LT8920L
  +--> ?PR?_RF24G_WRITEREG?GLH_LT8920L

?PR?GLH_LT8920L                                  -----    -----      -----    -----
  +--> ?PR?_RF24G_WRITEREG?GLH_LT8920L

?PR?_RF24G_WRITEREG?GLH_LT8920L                  -----    -----      -----    -----
  +--> ?PR?_ISPIWRITEBYTE?GLH_LT8920L

?PR?_RF24G_READREG?GLH_LT8920L                   -----    -----      -----    -----
  +--> ?PR?_ISPIWRITEBYTE?GLH_LT8920L
  +--> ?PR?ISPIREADBYTE?GLH_LT8920L

?PR?_RF24G_ENTERRXMODE?GLH_LT8920L               -----    -----      -----    -----
  +--> ?PR?_RF24G_WRITEREG?GLH_LT8920L
  +--> ?PR?RF24G_CHANGE_0X38?GLH_LT8920L
BL51 BANKED LINKER/LOCATER V6.22.2.0                                                  09/18/2024  10:06:51  PAGE 6


  +--> ?PR?GLH_LT8920L

?PR?RF24G_CHANGE_0X38?GLH_LT8920L                -----    -----      -----    -----
  +--> ?PR?_RF24G_WRITEREG?GLH_LT8920L

?PR?IINITSCCONFIG?GLH_APP_PROCESS                -----    -----      -----    -----
  +--> ?PR?GLH_APP_PROCESS
  +--> ?PR?_GLHFLASH_READBYTES?GLH_FLASH
  +--> ?PR?IRESETSCCONFIG?GLH_APP_PROCESS
  +--> ?PR?IREFRESHASCONFIG?GLH_APP_PROCESS

?PR?_GLHFLASH_READBYTES?GLH_FLASH                -----    -----      0230H    0009H
  +--> ?PR?GLH_FLASH
  +--> ?PR?_READ_DATAFLASH_ARRAY?EEPROM

?PR?_READ_DATAFLASH_ARRAY?EEPROM                 -----    -----      0239H    0009H

?PR?IRESETSCCONFIG?GLH_APP_PROCESS               -----    -----      0230H    0001H
  +--> ?PR?GLH_APP_PROCESS

?PR?IREFRESHASCONFIG?GLH_APP_PROCESS             -----    -----      -----    -----
  +--> ?PR?GLH_APP_PROCESS
  +--> ?PR?_GLHLM_SETSWITCHSTATUS?GLH_LED_MODE
  +--> ?PR?_GLHLM_SETBN?GLH_LED_MODE
  +--> ?PR?_GLHLM_STATICMODE?GLH_LED_MODE

?PR?_GLHLM_SETBN?GLH_LED_MODE                    -----    -----      -----    -----
  +--> ?PR?GLH_LED_MODE

?PR?_GLHLM_STATICMODE?GLH_LED_MODE               -----    -----      02C7H    0005H
  +--> ?PR?GLH_LED_MODE
  +--> ?PR?ISTATIC?GLH_LED_MODE

?PR?ISTATIC?GLH_LED_MODE                         -----    -----      -----    -----
  +--> ?PR?GLH_LED_MODE
  +--> ?PR?_GLHRGB_SETCOLOR?GLH_RGB

?PR?_GLHRGB_SETCOLOR?GLH_RGB                     -----    -----      02CCH    0002H
  +--> ?PR?GLH_RGB
  +--> ?PR?_GLHPWM_SET?GLH_PWM

?PR?_GLHPWM_SET?GLH_PWM                          -----    -----      02CEH    0005H

?PR?_GLHFLASH_READDEVID?GLH_FLASH                -----    -----      -----    -----
  +--> ?PR?_READ_DATAFLASH_ARRAY?EEPROM

?PR?GLHAPS_MAINTHREAD?GLH_APP_PROCESS            -----    -----      -----    -----
  +--> ?PR?GLHWD_CLEAR?GLH_WATCHDOG
  +--> ?PR?GLHOCP_MAINTHREAD?GLH_OVER_CURREN...
  +--> ?PR?ISAVESCCONFIGMAINTHREAD?GLH_APP_P...
  +--> ?PR?IRF24GRECEIVEMAINTHREAD?GLH_APP_P...
  +--> ?PR?ITIMINGPOWEROFFMAINTHREAD?GLH_APP...
  +--> ?PR?IRF24GCHANNELCHANGEMAINTHREAD?GLH...
  +--> ?PR?GLHLM_RENDERPROC?GLH_LED_MODE
  +--> ?PR?ISTEPLESSBRIGHTNESSADJUSTMENTMAIN...
  +--> ?PR?ISENDSYNCMAINTHREAD?GLH_APP_PROCESS

BL51 BANKED LINKER/LOCATER V6.22.2.0                                                  09/18/2024  10:06:51  PAGE 7


?PR?GLHOCP_MAINTHREAD?GLH_OVER_CURREN...         -----    -----      -----    -----
  +--> ?PR?_GLHOCP_EVENTCALLBACK?GLH_APP_PRO...

?PR?_GLHOCP_EVENTCALLBACK?GLH_APP_PRO...         -----    -----      -----    -----
  +--> ?PR?GLHLM_INIT?GLH_LED_MODE
  +--> ?PR?IREFRESHASCONFIG?GLH_APP_PROCESS

?PR?ISAVESCCONFIGMAINTHREAD?GLH_APP_P...         -----    -----      -----    -----
  +--> ?PR?GLH_APP_PROCESS
  +--> ?PR?_GLHFLASH_WRITEBYTES?GLH_FLASH

?PR?_GLHFLASH_WRITEBYTES?GLH_FLASH               -----    -----      022CH    0009H
  +--> ?PR?GLH_FLASH
  +--> ?PR?_WRITE_DATAFLASH_ARRAY?EEPROM

?PR?_WRITE_DATAFLASH_ARRAY?EEPROM                -----    -----      0235H    0008H
  +--> ?PR?_WRITEDATATOONEPAGE?EEPROM

?PR?_WRITEDATATOONEPAGE?EEPROM                   -----    -----      023DH    008AH

?PR?IRF24GRECEIVEMAINTHREAD?GLH_APP_P...         -----    -----      022CH    0001H
  +--> ?PR?RF24G_ISTXORRXCOMPLETE?GLH_LT8920L
  +--> ?PR?_RF24G_READRXDATA?GLH_LT8920L
  +--> ?PR?GLH_APP_PROCESS
  +--> ?PR?_IRECEIVESYNCHANDLE?GLH_APP_PROCESS
  +--> ?PR?_DATADECRYPTIONPROCESSING?GLH_APP...
  +--> ?PR?_IRF24GDATAHANDLE?GLH_APP_PROCESS
  +--> ?PR?_RF24G_ENTERRXMODE?GLH_LT8920L

?PR?RF24G_ISTXORRXCOMPLETE?GLH_LT8920L           -----    -----      -----    -----
  +--> ?PR?_RF24G_READREG?GLH_LT8920L

?PR?_RF24G_READRXDATA?GLH_LT8920L                -----    -----      022DH    0006H
  +--> ?PR?_ISPIWRITEBYTE?GLH_LT8920L
  +--> ?PR?ISPIREADBYTE?GLH_LT8920L
  +--> ?PR?GLH_LT8920L

?PR?_IRECEIVESYNCHANDLE?GLH_APP_PROCESS          -----    -----      022DH    0003H
  +--> ?PR?GLH_APP_PROCESS
  +--> ?PR?_IGETCHECKSUM?GLH_APP_PROCESS
  +--> ?PR?_IGETCHECKCRC?GLH_APP_PROCESS
  +--> ?PR?IREFRESHASCONFIG?GLH_APP_PROCESS
  +--> ?PR?_IAUTOSLECT?GLH_APP_PROCESS

?PR?_IGETCHECKSUM?GLH_APP_PROCESS                -----    -----      0230H    0003H
  +--> ?PR?GLH_APP_PROCESS

?PR?_IGETCHECKCRC?GLH_APP_PROCESS                -----    -----      0230H    0004H
  +--> ?PR?GLH_APP_PROCESS

?PR?_IAUTOSLECT?GLH_APP_PROCESS                  -----    -----      0230H    0001H

?PR?_DATADECRYPTIONPROCESSING?GLH_APP...         -----    -----      022DH    0004H
  +--> ?PR?GLH_APP_PROCESS
  +--> ?PR?_MYCROL?GLH_APP_PROCESS

?PR?_IRF24GDATAHANDLE?GLH_APP_PROCESS            -----    -----      022DH    0010H
BL51 BANKED LINKER/LOCATER V6.22.2.0                                                  09/18/2024  10:06:51  PAGE 8


  +--> ?PR?GLH_APP_PROCESS
  +--> ?PR?_RF24G_TX?GLH_LT8920L
  +--> ?PR?RF24G_ISTXORRXCOMPLETE?GLH_LT8920L
  +--> ?PR?_GLHDL_DELAYMS?GLH_DELAY
  +--> ?PR?_RF24G_ENTERRXMODE?GLH_LT8920L
  +--> ?PR?IBNINC?GLH_APP_PROCESS
  +--> ?PR?IBNDEC?GLH_APP_PROCESS
  +--> ?PR?_IBNSET?GLH_APP_PROCESS
  +--> ?PR?_ICWSET?GLH_APP_PROCESS
  +--> ?PR?ICWINC?GLH_APP_PROCESS
  +--> ?PR?ICWDEC?GLH_APP_PROCESS
  +--> ?PR?_ISAVESCENCE?GLH_APP_PROCESS
  +--> ?PR?_IEXCUTESCENCE?GLH_APP_PROCESS
  +--> ?PR?IREFRESHASCONFIG?GLH_APP_PROCESS
  +--> ?PR?_ISETTIMINGPOWEROFF?GLH_APP_PROCESS
  +--> ?PR?_IRGBFLASH?GLH_APP_PROCESS

?PR?_RF24G_TX?GLH_LT8920L                        -----    -----      023DH    0005H
  +--> ?PR?GLH_LT8920L
  +--> ?PR?_ISPIWRITEBYTE?GLH_LT8920L
  +--> ?PR?_RF24G_WRITEREG?GLH_LT8920L

?PR?_GLHDL_DELAYMS?GLH_DELAY                     -----    -----      023DH    0004H
  +--> ?PR?GLHWD_CLEAR?GLH_WATCHDOG

?PR?IBNINC?GLH_APP_PROCESS                       -----    -----      -----    -----
  +--> ?PR?_GLHLM_SETBN?GLH_LED_MODE

?PR?IBNDEC?GLH_APP_PROCESS                       -----    -----      -----    -----
  +--> ?PR?_GLHLM_SETBN?GLH_LED_MODE

?PR?_IBNSET?GLH_APP_PROCESS                      -----    -----      -----    -----
  +--> ?PR?_GLHLM_SETBN?GLH_LED_MODE

?PR?_ICWSET?GLH_APP_PROCESS                      -----    -----      -----    -----
  +--> ?PR?GLH_APP_PROCESS
  +--> ?PR?_GLHLM_STATICMODE?GLH_LED_MODE

?PR?ICWINC?GLH_APP_PROCESS                       -----    -----      -----    -----
  +--> ?PR?GLH_APP_PROCESS
  +--> ?PR?_GLHLM_STATICMODE?GLH_LED_MODE

?PR?ICWDEC?GLH_APP_PROCESS                       -----    -----      -----    -----
  +--> ?PR?GLH_APP_PROCESS
  +--> ?PR?_GLHLM_STATICMODE?GLH_LED_MODE

?PR?_ISAVESCENCE?GLH_APP_PROCESS                 -----    -----      023DH    0006H
  +--> ?PR?GLH_APP_PROCESS
  +--> ?PR?_GLHPWM_SET?GLH_PWM
  +--> ?PR?GLHWD_CLEAR?GLH_WATCHDOG
  +--> ?PR?_GLHLM_SETBN?GLH_LED_MODE

?PR?_IEXCUTESCENCE?GLH_APP_PROCESS               -----    -----      023DH    001AH
  +--> ?CO?GLH_APP_PROCESS
  +--> ?PR?GLH_APP_PROCESS
  +--> ?PR?IREFRESHASCONFIG?GLH_APP_PROCESS

BL51 BANKED LINKER/LOCATER V6.22.2.0                                                  09/18/2024  10:06:51  PAGE 9


?PR?_ISETTIMINGPOWEROFF?GLH_APP_PROCESS          -----    -----      023DH    0005H
  +--> ?PR?GLH_APP_PROCESS
  +--> ?PR?_GLHPWM_SET?GLH_PWM
  +--> ?PR?GLHWD_CLEAR?GLH_WATCHDOG
  +--> ?PR?_GLHLM_SETBN?GLH_LED_MODE

?PR?_IRGBFLASH?GLH_APP_PROCESS                   -----    -----      023DH    000AH
  +--> ?PR?_GLHPWM_SET?GLH_PWM
  +--> ?PR?GLH_APP_PROCESS
  +--> ?PR?GLHWD_CLEAR?GLH_WATCHDOG
  +--> ?PR?IREFRESHASCONFIG?GLH_APP_PROCESS

?PR?ITIMINGPOWEROFFMAINTHREAD?GLH_APP...         -----    -----      -----    -----
  +--> ?PR?GLH_APP_PROCESS
  +--> ?PR?IREFRESHASCONFIG?GLH_APP_PROCESS

?PR?IRF24GCHANNELCHANGEMAINTHREAD?GLH...         -----    -----      -----    -----
  +--> ?PR?GLH_APP_PROCESS
  +--> ?PR?_RF24G_ENTERRXMODE?GLH_LT8920L

?PR?GLHLM_RENDERPROC?GLH_LED_MODE                -----    -----      -----    -----
  +--> ?PR?IONOFFFADEMAINTHREAD?GLH_LED_MODE
  +--> ?PR?IBNFADEMAINTHREAD?GLH_LED_MODE

?PR?IONOFFFADEMAINTHREAD?GLH_LED_MODE            -----    -----      -----    -----
  +--> ?PR?GLH_LED_MODE
  +--> ?PR?IRESETPARAMS?GLH_LED_MODE
  +--> ?PR?_GLHRGB_SETONOFFVALUE?GLH_RGB

?PR?_GLHRGB_SETONOFFVALUE?GLH_RGB                -----    -----      -----    -----
  +--> ?PR?GLH_RGB
  +--> ?PR?_GLHPWM_SET?GLH_PWM

?PR?IBNFADEMAINTHREAD?GLH_LED_MODE               -----    -----      022CH    0003H
  +--> ?PR?GLH_LED_MODE
  +--> ?PR?_GLHRGB_SETBN?GLH_RGB

?PR?_GLHRGB_SETBN?GLH_RGB                        -----    -----      -----    -----
  +--> ?PR?GLH_RGB
  +--> ?PR?_GLHPWM_SET?GLH_PWM

?PR?ISENDSYNCMAINTHREAD?GLH_APP_PROCESS          -----    -----      -----    -----
  +--> ?PR?IREFRESHSYNCDATA?GLH_APP_PROCESS
  +--> ?PR?GLH_APP_PROCESS
  +--> ?PR?_RF24G_TX?GLH_LT8920L
  +--> ?PR?_RF24G_ENTERRXMODE?GLH_LT8920L
  +--> ?PR?RF24G_ISTXORRXCOMPLETE?GLH_LT8920L
  +--> ?PR?ISENDSYNCDATA?GLH_APP_PROCESS

?PR?IREFRESHSYNCDATA?GLH_APP_PROCESS             -----    -----      -----    -----
  +--> ?PR?GLH_APP_PROCESS
  +--> ?PR?_IGETCHECKSUM?GLH_APP_PROCESS
  +--> ?PR?_IGETCHECKCRC?GLH_APP_PROCESS

*** NEW ROOT ***************************************************

?PR?PORT_IRQHANDLER?GLH_OVER_CURRENT_...         -----    -----      -----    -----
BL51 BANKED LINKER/LOCATER V6.22.2.0                                                  09/18/2024  10:06:51  PAGE 10


  +--> ?PR?_GLHOCP_EVENTCALLBACK?GLH_APP_PRO...



SYMBOL TABLE OF MODULE:  .\Output\Project (?C_STARTUP)

  VALUE           TYPE          NAME
  ----------------------------------

  -------         MODULE        ?C_STARTUP
  C:2BAFH         SEGMENT       ?C_C51STARTUP
  I:0021H         SEGMENT       ?STACK
  C:0000H         PUBLIC        ?C_STARTUP
  D:00E0H         SYMBOL        ACC
  D:00F0H         SYMBOL        B
  D:0083H         SYMBOL        DPH
  D:0082H         SYMBOL        DPL
  N:0000H         SYMBOL        IBPSTACK
  N:0100H         SYMBOL        IBPSTACKTOP
  N:0080H         SYMBOL        IDATALEN
  C:2BB2H         SYMBOL        IDATALOOP
  N:0000H         SYMBOL        PBPSTACK
  N:0000H         SYMBOL        PBPSTACKTOP
  N:0000H         SYMBOL        PDATALEN
  N:0000H         SYMBOL        PDATASTART
  N:0000H         SYMBOL        PPAGE
  N:0000H         SYMBOL        PPAGEENABLE
  D:00A0H         SYMBOL        PPAGE_SFR
  D:0081H         SYMBOL        SP
  C:2BAFH         SYMBOL        STARTUP1
  N:0000H         SYMBOL        XBPSTACK
  N:0000H         SYMBOL        XBPSTACKTOP
  N:02FFH         SYMBOL        XDATALEN
  C:2BBDH         SYMBOL        XDATALOOP
  N:0000H         SYMBOL        XDATASTART
  C:0000H         LINE#         94
  C:2BAFH         LINE#         109
  C:2BB1H         LINE#         110
  C:2BB2H         LINE#         111
  C:2BB3H         LINE#         112
  C:2BB5H         LINE#         116
  C:2BB8H         LINE#         117
  C:2BBAH         LINE#         119
  C:2BBCH         LINE#         123
  C:2BBDH         LINE#         124
  C:2BBEH         LINE#         125
  C:2BBFH         LINE#         126
  C:2BC1H         LINE#         127
  C:2BC3H         LINE#         161
  C:2BC6H         LINE#         165
  -------         ENDMOD        ?C_STARTUP

  -------         MODULE        MAIN
  C:0000H         SYMBOL        _ICE_DUMMY_
  D:0080H         PUBLIC        P0
  D:0090H         PUBLIC        P1
  D:00A0H         PUBLIC        P2
BL51 BANKED LINKER/LOCATER V6.22.2.0                                                  09/18/2024  10:06:51  PAGE 11


  D:00B0H         PUBLIC        P3
  D:00D8H         PUBLIC        PWMCON0
  D:00A8H         PUBLIC        IE
  D:00B8H         PUBLIC        IP
  C:0003H         PUBLIC        main
  D:0098H         PUBLIC        SCON
  D:0088H         PUBLIC        TCON
  D:00F8H         PUBLIC        SCON_1
  D:00E8H         PUBLIC        ADCCON0
  D:00C0H         PUBLIC        I2CON
  D:00C8H         PUBLIC        T2CON
  D:00D0H         PUBLIC        PSW
  -------         PROC          MAIN
  C:0003H         LINE#         7
  C:0003H         LINE#         8
  C:0003H         LINE#         9
  C:0006H         LINE#         11
  C:0006H         LINE#         12
  C:0006H         LINE#         13
  C:0009H         LINE#         14
  -------         ENDPROC       MAIN
  -------         ENDMOD        MAIN

  -------         MODULE        GLH_APP_PROCESS
  C:0000H         SYMBOL        _ICE_DUMMY_
  X:0009H         SYMBOL        s_u8PairFlashFlag
  D:0080H         PUBLIC        P0
  D:0090H         PUBLIC        P1
  C:2C49H         SYMBOL        iResetScConfig
  D:00A0H         PUBLIC        P2
  D:00B0H         PUBLIC        P3
  C:3C3BH         PUBLIC        Timer0_ISR
  C:3DE9H         SYMBOL        _iAutoSlect
  X:000AH         SYMBOL        s_u32LastSendSyncTime
  X:000EH         SYMBOL        s_bLastRecSyncFlag
  C:000EH         PUBLIC        GLHAPS_MainThread
  C:39D0H         PUBLIC        _iGetCheckCrc
  D:00D8H         PUBLIC        PWMCON0
  X:000FH         SYMBOL        s_au8ChannelTable
  X:0013H         SYMBOL        s_au8Rf24gRecBuff
  X:0053H         SYMBOL        s_bIsRgbControledByPair
  X:0054H         SYMBOL        s_PreScConfig
  D:00A8H         PUBLIC        IE
  X:00F0H         SYMBOL        eSteplessBrightnessAdjustmentStatus
  X:00F1H         PUBLIC        u8PackageNum
  C:3938H         SYMBOL        iInitScConfig
  C:3C8AH         SYMBOL        iSendSyncData
  X:00F2H         PUBLIC        u8RemainTimes
  X:00F3H         SYMBOL        s_u32LastRecSyncTime
  C:3801H         PUBLIC        usFlashInitVal
  C:2E75H         SYMBOL        _iRgbflash
  C:3C70H         PUBLIC        _GLHOCP_EventCallBack
  D:00B8H         PUBLIC        IP
  C:2DF1H         SYMBOL        iRf24gReceiveMainThread
  X:00F7H         SYMBOL        s_au8Rf24gRecSaveBuff
  X:0137H         SYMBOL        s_bApsIsOverCurrent
  C:10B1H         SYMBOL        _iReceiveSyncHandle
BL51 BANKED LINKER/LOCATER V6.22.2.0                                                  09/18/2024  10:06:51  PAGE 12


  C:3AE1H         PUBLIC        _iGetCheckSum
  C:37D0H         SYMBOL        iBnDec
  X:0138H         SYMBOL        s_u8PairFlashCnt
  X:0139H         SYMBOL        s_u32TimingTime
  C:270AH         SYMBOL        _iExcuteScence
  X:013DH         SYMBOL        s_u32DeviceId
  C:22F4H         SYMBOL        _iSetTimingPowerOff
  C:362BH         SYMBOL        iCwDec
  D:0098H         PUBLIC        SCON
  D:0089H         PUBLIC        TMOD
  D:0088H         PUBLIC        TCON
  C:39A2H         SYMBOL        iBnInc
  C:2D6AH         PUBLIC        GLHAPS_Init
  X:0141H         SYMBOL        s_bOverCurrentFlag
  C:0081H         SYMBOL        iSlectScence
  C:08BCH         SYMBOL        _iRf24gDataHandle
  X:0142H         SYMBOL        s_u8Channel
  X:0143H         SYMBOL        s_u32TimingStartTime
  C:396EH         SYMBOL        iCwInc
  X:0147H         SYMBOL        s_bPairFlag
  X:0148H         SYMBOL        s_u32PairFlashTime
  X:014CH         SYMBOL        s_u32LastRecRemoterFlag
  C:3CBDH         SYMBOL        _?ix1000
  C:3CC1H         SYMBOL        _?ix1001
  C:3CD1H         SYMBOL        _?ix1002
  D:00F8H         PUBLIC        SCON_1
  X:0150H         PUBLIC        IsTxingFlag
  C:366BH         SYMBOL        _iBnSet
  B:00A8H.1       PUBLIC        ET0
  C:2CDFH         PUBLIC        _DataDecryptionProcessing
  B:0088H.5       PUBLIC        TF0
  D:008CH         PUBLIC        TH0
  C:3492H         SYMBOL        iRefreshAsConfig
  X:0151H         SYMBOL        s_bTimingPowerOffFlag
  C:240AH         SYMBOL        _iSaveScence
  D:008AH         PUBLIC        TL0
  C:003EH         SYMBOL        _iCwSet
  X:0152H         PUBLIC        u8SyncBuff
  B:0088H.4       PUBLIC        TR0
  X:017CH         SYMBOL        s_u32LastRecRemoterTime
  X:0180H         SYMBOL        s_u8Rf24gRecSaveLen
  X:0181H         SYMBOL        s_sScConfig
  C:3C56H         PUBLIC        _MyCrol
  C:1D72H         SYMBOL        iRefreshSyncData
  X:021DH         SYMBOL        s_u32OverCurrentStartTime
  D:00E8H         PUBLIC        ADCCON0
  X:0221H         SYMBOL        s_eModeAuto
  D:00C0H         PUBLIC        I2CON
  C:3B46H         SYMBOL        iRf24gChannelChangeMainThread
  X:0222H         SYMBOL        s_u32TxingStartTime
  D:00C8H         PUBLIC        T2CON
  C:3B86H         SYMBOL        iTimingPowerOffMainThread
  C:0082H         SYMBOL        iSteplessBrightnessAdjustmentMainThread
  D:008EH         PUBLIC        CKCON
  C:3723H         SYMBOL        iSaveScConfigMainThread
  X:0226H         SYMBOL        u8Rf24gRecLen
  X:0227H         SYMBOL        s_u32SteplessBrightnessAdjustmentStartTime
BL51 BANKED LINKER/LOCATER V6.22.2.0                                                  09/18/2024  10:06:51  PAGE 13


  X:022BH         PUBLIC        u8TxFlag
  C:2619H         SYMBOL        iSendSyncMainThread
  D:00D0H         PUBLIC        PSW
  C:1B44H         SYMBOL        Com00D8
  C:1B44H         SYMBOL        L?0217
  C:1B46H         SYMBOL        L?0218
  C:1B49H         SYMBOL        L?0219
  C:1B53H         SYMBOL        L?0220
  C:1B66H         SYMBOL        L?0221
  C:1B69H         SYMBOL        L?0222
  C:1B6CH         SYMBOL        L?0223
  C:1B6EH         SYMBOL        L?0224
  C:1B75H         SYMBOL        L?0225
  C:1B75H         SYMBOL        L?0226
  C:1B83H         SYMBOL        L?0227
  C:1B8EH         SYMBOL        L?0228
  C:1B91H         SYMBOL        L?0229
  C:1B9CH         SYMBOL        L?0230
  C:1B9CH         SYMBOL        L?0231
  C:1B9FH         SYMBOL        L?0232
  C:1BA1H         SYMBOL        L?0233
  C:1BA9H         SYMBOL        L?0234
  C:1BACH         SYMBOL        L?0235
  C:1BAFH         SYMBOL        L?0236
  C:1BB0H         SYMBOL        L?0237
  C:1BBCH         SYMBOL        L?0238
  C:1BBCH         SYMBOL        L?0239
  C:1BC9H         SYMBOL        L?0240
  C:1BCCH         SYMBOL        L?0241
  C:1BD7H         SYMBOL        L?0242
  C:1BDEH         SYMBOL        L?0243
  C:1BEBH         SYMBOL        L?0244
  C:1BEBH         SYMBOL        L?0245
  C:1BF1H         SYMBOL        L?0246
  C:1BF2H         SYMBOL        L?0247
  C:1BF3H         SYMBOL        L?0248
  C:1BFAH         SYMBOL        L?0249
  C:1BFAH         SYMBOL        L?0250
  C:1BFDH         SYMBOL        L?0251
  C:1BFFH         SYMBOL        L?0252
  C:1C07H         SYMBOL        L?0253
  C:1C0AH         SYMBOL        L?0254
  C:1C15H         SYMBOL        L?0255
  C:1C15H         SYMBOL        L?0256
  C:1C29H         SYMBOL        L?0257
  C:1C29H         SYMBOL        L?0258
  C:1C2BH         SYMBOL        L?0259
  C:1C2CH         SYMBOL        L?0260
  C:1C2DH         SYMBOL        L?0261
  C:1C33H         SYMBOL        L?0262
  C:1C3AH         SYMBOL        L?0263
  C:1C40H         SYMBOL        L?0264
  C:1C48H         SYMBOL        L?0265
  C:1C48H         SYMBOL        L?0266
  C:1C4BH         SYMBOL        L?0267
  C:1C56H         SYMBOL        L?0268
  C:1C61H         SYMBOL        L?0269
BL51 BANKED LINKER/LOCATER V6.22.2.0                                                  09/18/2024  10:06:51  PAGE 14


  C:1C6CH         SYMBOL        L?0272
  C:1C6CH         SYMBOL        L?0273
  C:1C75H         SYMBOL        L?0274
  C:1C75H         SYMBOL        L?0275
  C:1C82H         SYMBOL        L?0276
  C:1C82H         SYMBOL        L?0277
  C:1C8CH         SYMBOL        L?0278
  C:1CA1H         SYMBOL        L?0279
  C:1CA9H         SYMBOL        L?0280
  C:1CB0H         SYMBOL        L?0283
  C:1CB0H         SYMBOL        L?0284
  C:1CB6H         SYMBOL        L?0285
  C:1CB6H         SYMBOL        L?0286
  C:1CB7H         SYMBOL        L?0287
  C:1CBEH         SYMBOL        L?0288
  C:1CD0H         SYMBOL        L?0290
  C:1CE1H         SYMBOL        L?0291
  C:1CE1H         SYMBOL        L?0292
  C:1CE3H         SYMBOL        L?0293
  C:1CEAH         SYMBOL        L?0294
  C:1CEAH         SYMBOL        L?0295
  C:1CF1H         SYMBOL        L?0296
  C:1CF1H         SYMBOL        L?0297
  C:1CF7H         SYMBOL        L?0298
  C:1D05H         SYMBOL        L?0301
  C:1D13H         SYMBOL        L?0302
  C:1D14H         SYMBOL        L?0303
  C:1D1BH         SYMBOL        L?0304
  C:1D1BH         SYMBOL        L?0305
  C:1D24H         SYMBOL        L?0307
  C:1D24H         SYMBOL        L?0308
  C:1D2AH         SYMBOL        L?0309
  C:1D2BH         SYMBOL        L?0310
  C:1D33H         SYMBOL        L?0311
  C:1D33H         SYMBOL        L?0312
  C:1D3AH         SYMBOL        L?0313
  C:1D3AH         SYMBOL        L?0314
  C:1D41H         SYMBOL        L?0315
  C:1D4CH         SYMBOL        L?0316
  C:1D4DH         SYMBOL        L?0317
  C:1D54H         SYMBOL        L?0318
  C:1D54H         SYMBOL        L?0319
  C:1D5BH         SYMBOL        L?0320
  C:1D65H         SYMBOL        L?0321
  C:1D65H         SYMBOL        L?0322
  C:1D6BH         SYMBOL        L?0323
  C:1D6BH         SYMBOL        L?0324
  -------         PROC          COM00D8
  -------         ENDPROC       COM00D8
  -------         PROC          IRESETSCCONFIG
  -------         DO            
  X:0230H         SYMBOL        i
  -------         ENDDO         
  C:2C49H         LINE#         233
  C:2C49H         LINE#         234
  C:2C49H         LINE#         235
  C:2C4EH         LINE#         237
BL51 BANKED LINKER/LOCATER V6.22.2.0                                                  09/18/2024  10:06:51  PAGE 15


  C:2C54H         LINE#         238
  C:2C59H         LINE#         239
  C:2C5DH         LINE#         240
  C:2C61H         LINE#         241
  C:2C65H         LINE#         242
  C:2C68H         LINE#         243
  C:2C6AH         LINE#         244
  C:2C6EH         LINE#         245
  C:2C74H         LINE#         246
  C:2C78H         LINE#         247
  C:2C7DH         LINE#         248
  C:2C7FH         LINE#         249
  C:2C83H         LINE#         251
  C:2C8FH         LINE#         252
  C:2C8FH         LINE#         253
  C:2C9BH         LINE#         254
  C:2CA3H         LINE#         255
  C:2CABH         LINE#         257
  C:2CB5H         LINE#         258
  C:2CBAH         LINE#         260
  C:2CC9H         LINE#         261
  C:2CC9H         LINE#         262
  C:2CD6H         LINE#         263
  C:2CDEH         LINE#         264
  -------         ENDPROC       IRESETSCCONFIG
  -------         PROC          ISLECTSCENCE
  C:0081H         LINE#         266
  C:0081H         LINE#         267
  C:0081H         LINE#         360
  -------         ENDPROC       ISLECTSCENCE
  -------         PROC          IREFRESHASCONFIG
  C:3492H         LINE#         362
  C:3492H         LINE#         363
  C:3492H         LINE#         364
  C:3497H         LINE#         365
  C:3497H         LINE#         366
  C:349BH         LINE#         368
  C:349BH         LINE#         370
  C:34A0H         LINE#         372
  C:34A8H         LINE#         373
  C:34A8H         LINE#         374
  C:34AEH         LINE#         375
  C:34C8H         LINE#         377
  C:34C8H         LINE#         379
  C:34D2H         LINE#         380
  C:34D2H         LINE#         381
  C:34D2H         LINE#         382
  C:34D2H         LINE#         383
  C:34D2H         LINE#         384
  C:34D2H         LINE#         385
  C:34D2H         LINE#         387
  C:34D8H         LINE#         390
  C:34D8H         LINE#         391
  C:34D8H         LINE#         406
  C:34D8H         LINE#         408
  C:34E0H         LINE#         410
  -------         ENDPROC       IREFRESHASCONFIG
BL51 BANKED LINKER/LOCATER V6.22.2.0                                                  09/18/2024  10:06:51  PAGE 16


  -------         PROC          _IAUTOSLECT
  X:0230H         SYMBOL        eScence
  C:3DE9H         LINE#         412
  C:3DEEH         LINE#         413
  C:3DEEH         LINE#         496
  -------         ENDPROC       _IAUTOSLECT
  -------         PROC          IINITSCCONFIG
  C:3938H         LINE#         498
  C:3938H         LINE#         499
  C:3938H         LINE#         500
  C:3947H         LINE#         501
  C:3954H         LINE#         502
  C:395DH         LINE#         503
  C:3965H         LINE#         504
  C:3965H         LINE#         505
  C:3968H         LINE#         507
  C:396BH         LINE#         508
  C:396BH         LINE#         509
  -------         ENDPROC       IINITSCCONFIG
  -------         PROC          ISAVESCCONFIGMAINTHREAD
  -------         DO            
  X:0000H         SYMBOL        s_u32LastSaveTime
  -------         ENDDO         
  C:3723H         LINE#         512
  C:3723H         LINE#         513
  C:3723H         LINE#         516
  C:3733H         LINE#         517
  C:3733H         LINE#         518
  C:3739H         LINE#         520
  C:3748H         LINE#         521
  C:3748H         LINE#         523
  C:3748H         LINE#         525
  C:3750H         LINE#         526
  C:375DH         LINE#         527
  C:375DH         LINE#         528
  -------         ENDPROC       ISAVESCCONFIGMAINTHREAD
  -------         PROC          GLHAPS_INIT
  -------         DO            
  X:022CH         SYMBOL        au8Temp
  -------         ENDDO         
  C:2D6AH         LINE#         530
  C:2D6AH         LINE#         531
  C:2D6AH         LINE#         532
  C:2D75H         LINE#         534
  C:2D78H         LINE#         535
  C:2D81H         LINE#         536
  C:2D84H         LINE#         537
  C:2D87H         LINE#         538
  C:2D8CH         LINE#         539
  C:2D8FH         LINE#         540
  C:2D92H         LINE#         541
  C:2D95H         LINE#         543
  C:2D9EH         LINE#         544
  -------         ENDPROC       GLHAPS_INIT
  -------         PROC          GLHAPS_MAINTHREAD
  C:000EH         LINE#         547
  C:000EH         LINE#         548
BL51 BANKED LINKER/LOCATER V6.22.2.0                                                  09/18/2024  10:06:51  PAGE 17


  C:000EH         LINE#         549
  C:0011H         LINE#         550
  C:0014H         LINE#         552
  C:001CH         LINE#         553
  C:001CH         LINE#         555
  C:001CH         LINE#         557
  C:001FH         LINE#         558
  C:0022H         LINE#         559
  C:0025H         LINE#         560
  C:0028H         LINE#         561
  C:002EH         LINE#         562
  C:002EH         LINE#         564
  C:002EH         LINE#         566
  C:002EH         LINE#         567
  C:0031H         LINE#         568
  C:0031H         LINE#         569
  C:0034H         LINE#         570
  C:0037H         LINE#         584
  -------         ENDPROC       GLHAPS_MAINTHREAD
  -------         PROC          _IRGBFLASH
  X:023DH         SYMBOL        u8Num
  X:023EH         SYMBOL        u32Time
  -------         DO            
  X:0242H         SYMBOL        u32WatiStartTime
  X:0246H         SYMBOL        i
  -------         ENDDO         
  C:2E75H         LINE#         586
  C:2E7AH         LINE#         587
  C:2E7AH         LINE#         599
  C:2E84H         LINE#         600
  C:2E89H         LINE#         602
  C:2E97H         LINE#         603
  C:2E97H         LINE#         604
  C:2EA6H         LINE#         605
  C:2EA9H         LINE#         606
  C:2EBBH         LINE#         607
  C:2EBBH         LINE#         608
  C:2EBEH         LINE#         609
  C:2EC0H         LINE#         611
  C:2ECFH         LINE#         612
  C:2ED2H         LINE#         613
  C:2EE4H         LINE#         614
  C:2EE4H         LINE#         615
  C:2EE7H         LINE#         616
  C:2EE9H         LINE#         617
  C:2EF2H         LINE#         618
  -------         ENDPROC       _IRGBFLASH
  -------         PROC          IBNINC
  C:39A2H         LINE#         673
  C:39A2H         LINE#         674
  C:39A2H         LINE#         675
  C:39A8H         LINE#         676
  C:39A8H         LINE#         678
  C:39A8H         LINE#         680
  C:39BBH         LINE#         681
  C:39BBH         LINE#         682
  C:39BFH         LINE#         683
BL51 BANKED LINKER/LOCATER V6.22.2.0                                                  09/18/2024  10:06:51  PAGE 18


  C:39C1H         LINE#         685
  C:39C1H         LINE#         686
  C:39C7H         LINE#         687
  C:39C7H         LINE#         688
  C:39CFH         LINE#         689
  -------         ENDPROC       IBNINC
  -------         PROC          IBNDEC
  C:37D0H         LINE#         691
  C:37D0H         LINE#         692
  C:37D0H         LINE#         693
  C:37D6H         LINE#         694
  C:37D6H         LINE#         696
  C:37D6H         LINE#         698
  C:37EAH         LINE#         699
  C:37EAH         LINE#         700
  C:37EEH         LINE#         701
  C:37F0H         LINE#         703
  C:37F0H         LINE#         704
  C:37F6H         LINE#         705
  C:37F6H         LINE#         706
  C:37FEH         LINE#         707
  -------         ENDPROC       IBNDEC
  -------         PROC          _IBNSET
  D:0007H         SYMBOL        u8Bn
  C:366BH         LINE#         709
  C:366BH         LINE#         710
  C:366BH         LINE#         711
  C:3671H         LINE#         712
  C:3671H         LINE#         714
  C:3671H         LINE#         716
  C:367EH         LINE#         717
  C:367EH         LINE#         718
  C:3682H         LINE#         719
  C:3684H         LINE#         720
  C:3692H         LINE#         721
  C:3692H         LINE#         722
  C:3695H         LINE#         723
  C:3697H         LINE#         725
  C:3697H         LINE#         726
  C:3699H         LINE#         727
  C:3699H         LINE#         728
  C:36A8H         LINE#         729
  -------         ENDPROC       _IBNSET
  -------         PROC          _ICWSET
  D:0007H         SYMBOL        u8Cw
  -------         DO            
  D:0006H         SYMBOL        u8CwTemp
  -------         ENDDO         
  C:003EH         LINE#         975
  C:003EH         LINE#         976
  C:003EH         LINE#         977
  C:0040H         LINE#         979
  C:0046H         LINE#         980
  C:0046H         LINE#         982
  C:0046H         LINE#         984
  C:0050H         LINE#         985
  C:0050H         LINE#         987
BL51 BANKED LINKER/LOCATER V6.22.2.0                                                  09/18/2024  10:06:51  PAGE 19


  C:0050H         LINE#         989
  C:006FH         LINE#         990
  C:0074H         LINE#         991
  C:007AH         LINE#         992
  C:0080H         LINE#         993
  -------         ENDPROC       _ICWSET
  -------         PROC          ICWDEC
  C:362BH         LINE#         995
  C:362BH         LINE#         996
  C:362BH         LINE#         997
  C:3631H         LINE#         998
  C:3631H         LINE#         1000
  C:3631H         LINE#         1002
  C:3639H         LINE#         1003
  C:3639H         LINE#         1004
  C:363CH         LINE#         1005
  C:363EH         LINE#         1007
  C:363EH         LINE#         1009
  C:3646H         LINE#         1010
  C:3646H         LINE#         1012
  C:3646H         LINE#         1014
  C:3658H         LINE#         1015
  C:3658H         LINE#         1016
  C:365CH         LINE#         1017
  C:365EH         LINE#         1019
  C:365EH         LINE#         1020
  C:3664H         LINE#         1021
  C:3664H         LINE#         1023
  C:366AH         LINE#         1024
  -------         ENDPROC       ICWDEC
  -------         PROC          ICWINC
  C:396EH         LINE#         1026
  C:396EH         LINE#         1027
  C:396EH         LINE#         1028
  C:3974H         LINE#         1029
  C:3974H         LINE#         1031
  C:3974H         LINE#         1033
  C:397CH         LINE#         1034
  C:397CH         LINE#         1035
  C:397FH         LINE#         1036
  C:3981H         LINE#         1038
  C:3981H         LINE#         1040
  C:3987H         LINE#         1041
  C:3987H         LINE#         1043
  C:3987H         LINE#         1045
  C:3990H         LINE#         1046
  C:3990H         LINE#         1047
  C:3994H         LINE#         1048
  C:3996H         LINE#         1050
  C:3996H         LINE#         1051
  C:399BH         LINE#         1052
  C:399BH         LINE#         1054
  C:39A1H         LINE#         1055
  -------         ENDPROC       ICWINC
  C:24FBH         SYMBOL        L?0270
  C:2504H         SYMBOL        L?0281
  C:250DH         SYMBOL        L?0299
BL51 BANKED LINKER/LOCATER V6.22.2.0                                                  09/18/2024  10:06:51  PAGE 20


  -------         PROC          _ISAVESCENCE
  X:023DH         SYMBOL        u8SenceId
  -------         DO            
  X:023EH         SYMBOL        u32WaitStartTime
  X:0242H         SYMBOL        i
  -------         ENDDO         
  C:240AH         LINE#         1057
  C:2410H         LINE#         1058
  C:2410H         LINE#         1059
  C:2418H         LINE#         1060
  C:241DH         LINE#         1062
  C:2426H         LINE#         1063
  C:2426H         LINE#         1065
  C:2426H         LINE#         1067
  C:2436H         LINE#         1069
  C:244BH         LINE#         1070
  C:244BH         LINE#         1071
  C:2455H         LINE#         1072
  C:245FH         LINE#         1073
  C:2469H         LINE#         1074
  C:2478H         LINE#         1075
  C:2487H         LINE#         1077
  C:248AH         LINE#         1078
  C:2495H         LINE#         1079
  C:2495H         LINE#         1080
  C:2498H         LINE#         1081
  C:249AH         LINE#         1083
  C:24A4H         LINE#         1084
  C:24AEH         LINE#         1085
  C:24B8H         LINE#         1086
  C:24C7H         LINE#         1087
  C:24D6H         LINE#         1089
  C:24D9H         LINE#         1090
  C:24E4H         LINE#         1091
  C:24E4H         LINE#         1092
  C:24E7H         LINE#         1093
  C:24E9H         LINE#         1094
  C:24F2H         LINE#         1096
  C:24FAH         LINE#         1097
  -------         ENDPROC       _ISAVESCENCE
  -------         PROC          _IEXCUTESCENCE
  X:023DH         SYMBOL        u8SenceId
  -------         DO            
  X:023EH         SYMBOL        au32AddrTemp
  X:024EH         SYMBOL        au8GroupTemp
  X:0252H         SYMBOL        u32LastAddrTemp
  X:0256H         SYMBOL        u8LastGroupTemp
  -------         ENDDO         
  C:270AH         LINE#         1099
  C:270FH         LINE#         1100
  C:270FH         LINE#         1101
  C:2722H         LINE#         1102
  C:272DH         LINE#         1103
  C:2737H         LINE#         1104
  C:273CH         LINE#         1106
  C:2748H         LINE#         1107
  C:2748H         LINE#         1109
BL51 BANKED LINKER/LOCATER V6.22.2.0                                                  09/18/2024  10:06:51  PAGE 21


  C:2748H         LINE#         1124
  C:275BH         LINE#         1125
  C:276BH         LINE#         1126
  C:277BH         LINE#         1127
  C:278BH         LINE#         1128
  C:279BH         LINE#         1129
  C:27ABH         LINE#         1130
  C:27BBH         LINE#         1131
  C:27CBH         LINE#         1132
  C:27DBH         LINE#         1133
  C:27ECH         LINE#         1136
  C:27EFH         LINE#         1137
  -------         ENDPROC       _IEXCUTESCENCE
  C:23EFH         SYMBOL        L?0271
  C:23F8H         SYMBOL        L?0282
  C:2401H         SYMBOL        L?0300
  -------         PROC          _ISETTIMINGPOWEROFF
  D:0002H         SYMBOL        u16Time
  -------         DO            
  X:023DH         SYMBOL        i
  X:023EH         SYMBOL        u32WaitStartTime
  -------         ENDDO         
  C:22F4H         LINE#         1139
  C:22F8H         LINE#         1140
  C:22F8H         LINE#         1141
  C:22FDH         LINE#         1142
  C:2305H         LINE#         1144
  C:230DH         LINE#         1145
  C:230DH         LINE#         1147
  C:230DH         LINE#         1149
  C:2313H         LINE#         1150
  C:2319H         LINE#         1151
  C:232AH         LINE#         1153
  C:233FH         LINE#         1154
  C:233FH         LINE#         1155
  C:2349H         LINE#         1156
  C:2353H         LINE#         1157
  C:235DH         LINE#         1158
  C:236CH         LINE#         1159
  C:237BH         LINE#         1161
  C:237EH         LINE#         1162
  C:2389H         LINE#         1163
  C:2389H         LINE#         1164
  C:238CH         LINE#         1165
  C:238EH         LINE#         1167
  C:2398H         LINE#         1168
  C:23A2H         LINE#         1169
  C:23ACH         LINE#         1170
  C:23BBH         LINE#         1171
  C:23CAH         LINE#         1173
  C:23CDH         LINE#         1174
  C:23D8H         LINE#         1175
  C:23D8H         LINE#         1176
  C:23DBH         LINE#         1177
  C:23DDH         LINE#         1178
  C:23E6H         LINE#         1180
  C:23EEH         LINE#         1181
BL51 BANKED LINKER/LOCATER V6.22.2.0                                                  09/18/2024  10:06:51  PAGE 22


  -------         ENDPROC       _ISETTIMINGPOWEROFF
  -------         PROC          ITIMINGPOWEROFFMAINTHREAD
  C:3B86H         LINE#         1183
  C:3B86H         LINE#         1184
  C:3B86H         LINE#         1185
  C:3B8EH         LINE#         1186
  C:3B8EH         LINE#         1188
  C:3B8EH         LINE#         1190
  C:3B9DH         LINE#         1191
  C:3B9DH         LINE#         1192
  C:3B9DH         LINE#         1193
  C:3BA1H         LINE#         1194
  C:3BA4H         LINE#         1195
  C:3BA4H         LINE#         1196
  -------         ENDPROC       ITIMINGPOWEROFFMAINTHREAD
  -------         PROC          _MYCROL
  D:0007H         SYMBOL        u8Byte
  D:0005H         SYMBOL        u8Cnt
  -------         DO            
  D:0006H         SYMBOL        u8Temp
  D:0004H         SYMBOL        i
  D:0007H         SYMBOL        u8Value
  -------         ENDDO         
  C:3C56H         LINE#         1309
  C:3C56H         LINE#         1310
  C:3C56H         LINE#         1311
  C:3C58H         LINE#         1312
  C:3C58H         LINE#         1314
  C:3C5DH         LINE#         1315
  C:3C5DH         LINE#         1316
  C:3C67H         LINE#         1317
  C:3C6CH         LINE#         1318
  C:3C6FH         LINE#         1320
  C:3C6FH         LINE#         1321
  -------         ENDPROC       _MYCROL
  -------         PROC          _DATADECRYPTIONPROCESSING
  X:022DH         SYMBOL        u8pBuff
  X:0230H         SYMBOL        u8Len
  -------         DO            
  D:0007H         SYMBOL        i
  -------         ENDDO         
  C:2CDFH         LINE#         1323
  C:2CEAH         LINE#         1324
  C:2CEAH         LINE#         1325
  C:2CEAH         LINE#         1327
  C:2CEEH         LINE#         1328
  C:2CEEH         LINE#         1330
  C:2CEEH         LINE#         1332
  C:2CF2H         LINE#         1333
  C:2CF2H         LINE#         1335
  C:2CF2H         LINE#         1337
  C:2D0EH         LINE#         1339
  C:2D13H         LINE#         1340
  C:2D1DH         LINE#         1341
  C:2D27H         LINE#         1342
  C:2D34H         LINE#         1344
  C:2D40H         LINE#         1345
BL51 BANKED LINKER/LOCATER V6.22.2.0                                                  09/18/2024  10:06:51  PAGE 23


  C:2D40H         LINE#         1346
  C:2D45H         LINE#         1347
  C:2D45H         LINE#         1348
  C:2D66H         LINE#         1349
  C:2D66H         LINE#         1350
  C:2D69H         LINE#         1351
  -------         ENDPROC       _DATADECRYPTIONPROCESSING
  -------         PROC          IRF24GRECEIVEMAINTHREAD
  -------         DO            
  X:022CH         SYMBOL        eRf24gRecResult
  -------         ENDDO         
  C:2DF1H         LINE#         1352
  C:2DF1H         LINE#         1353
  C:2DF1H         LINE#         1355
  C:2DF6H         LINE#         1357
  C:2DFEH         LINE#         1358
  C:2E02H         LINE#         1359
  C:2E02H         LINE#         1360
  C:2E18H         LINE#         1362
  C:2E23H         LINE#         1364
  C:2E36H         LINE#         1365
  C:2E3EH         LINE#         1366
  C:2E44H         LINE#         1367
  C:2E57H         LINE#         1369
  C:2E57H         LINE#         1370
  C:2E5CH         LINE#         1371
  C:2E5CH         LINE#         1372
  C:2E5EH         LINE#         1373
  C:2E5EH         LINE#         1374
  C:2E5EH         LINE#         1375
  C:2E60H         LINE#         1376
  C:2E68H         LINE#         1377
  C:2E68H         LINE#         1378
  C:2E68H         LINE#         1379
  C:2E6DH         LINE#         1380
  C:2E6DH         LINE#         1381
  C:2E6FH         LINE#         1382
  C:2E6FH         LINE#         1383
  C:2E74H         LINE#         1384
  C:2E74H         LINE#         1386
  C:2E74H         LINE#         1398
  C:2E74H         LINE#         1399
  -------         ENDPROC       IRF24GRECEIVEMAINTHREAD
  -------         PROC          IRF24GCHANNELCHANGEMAINTHREAD
  -------         DO            
  X:0004H         SYMBOL        s_u32LastChannelChangeTime
  -------         ENDDO         
  C:3B46H         LINE#         1401
  C:3B46H         LINE#         1402
  C:3B46H         LINE#         1405
  C:3B53H         LINE#         1406
  C:3B53H         LINE#         1407
  C:3B59H         LINE#         1409
  C:3B59H         LINE#         1410
  C:3B5EH         LINE#         1411
  C:3B5EH         LINE#         1412
  C:3B60H         LINE#         1413
BL51 BANKED LINKER/LOCATER V6.22.2.0                                                  09/18/2024  10:06:51  PAGE 24


  C:3B60H         LINE#         1414
  C:3B65H         LINE#         1415
  C:3B65H         LINE#         1416
  -------         ENDPROC       IRF24GCHANNELCHANGEMAINTHREAD
  C:0D2AH         SYMBOL        L?0289
  C:0D34H         SYMBOL        L?0306
  -------         PROC          _IRF24GDATAHANDLE
  X:022DH         SYMBOL        pu8RxData
  X:0230H         SYMBOL        pu8RxLen
  -------         DO            
  X:0008H         SYMBOL        s_u8LastPackgeNum
  X:0233H         SYMBOL        u32Addr
  X:0237H         SYMBOL        i
  X:0238H         SYMBOL        j
  C:0BADH         SYMBOL        ADDR_CHECK
  C:0BE5H         SYMBOL        RECEIVE_HANDEL
  -------         DO            
  X:0239H         SYMBOL        u32WaitStartTime
  -------         ENDDO         
  -------         ENDDO         
  C:08BCH         LINE#         1430
  C:08C2H         LINE#         1431
  C:08C2H         LINE#         1433
  C:08CCH         LINE#         1434
  C:08D3H         LINE#         1436
  C:08E3H         LINE#         1437
  C:08E3H         LINE#         1439
  C:08E3H         LINE#         1441
  C:08F4H         LINE#         1442
  C:08F4H         LINE#         1444
  C:08F4H         LINE#         1446
  C:0905H         LINE#         1447
  C:0905H         LINE#         1449
  C:0905H         LINE#         1450
  C:090FH         LINE#         1452
  C:095FH         LINE#         1456
  C:096CH         LINE#         1457
  C:096CH         LINE#         1458
  C:0987H         LINE#         1459
  C:0987H         LINE#         1460
  C:0992H         LINE#         1461
  C:0992H         LINE#         1462
  C:0992H         LINE#         1463
  C:0992H         LINE#         1465
  C:0992H         LINE#         1466
  C:0999H         LINE#         1467
  C:0999H         LINE#         1468
  C:09ABH         LINE#         1469
  C:09ABH         LINE#         1470
  C:09BEH         LINE#         1471
  C:09BEH         LINE#         1472
  C:09CEH         LINE#         1473
  C:09CEH         LINE#         1474
  C:0A12H         LINE#         1475
  C:0A1CH         LINE#         1477
  C:0A4EH         LINE#         1478
  C:0A53H         LINE#         1480
BL51 BANKED LINKER/LOCATER V6.22.2.0                                                  09/18/2024  10:06:51  PAGE 25


  C:0A5BH         LINE#         1481
  C:0A5BH         LINE#         1483
  C:0A65H         LINE#         1485
  C:0A71H         LINE#         1486
  C:0A71H         LINE#         1487
  C:0A74H         LINE#         1489
  C:0A77H         LINE#         1490
  C:0A77H         LINE#         1491
  C:0A7BH         LINE#         1492
  C:0A7BH         LINE#         1493
  C:0A7BH         LINE#         1495
  C:0A7DH         LINE#         1498
  C:0A7DH         LINE#         1500
  C:0A7DH         LINE#         1501
  C:0A87H         LINE#         1502
  C:0A8CH         LINE#         1504
  C:0A94H         LINE#         1505
  C:0A94H         LINE#         1507
  C:0A9EH         LINE#         1509
  C:0AAAH         LINE#         1510
  C:0AAAH         LINE#         1511
  C:0AADH         LINE#         1513
  C:0AB0H         LINE#         1514
  C:0AB0H         LINE#         1515
  C:0AB4H         LINE#         1516
  C:0AB4H         LINE#         1517
  C:0AB4H         LINE#         1519
  C:0ABBH         LINE#         1522
  C:0ABBH         LINE#         1523
  C:0ABBH         LINE#         1524
  C:0AC1H         LINE#         1526
  C:0ACCH         LINE#         1527
  C:0ACCH         LINE#         1528
  C:0AD8H         LINE#         1529
  C:0AD8H         LINE#         1530
  C:0AEDH         LINE#         1531
  C:0AEDH         LINE#         1532
  C:0AFCH         LINE#         1533
  C:0B07H         LINE#         1535
  C:0B14H         LINE#         1536
  C:0B17H         LINE#         1538
  C:0B21H         LINE#         1540
  C:0B21H         LINE#         1541
  C:0B29H         LINE#         1542
  C:0B29H         LINE#         1543
  C:0B2CH         LINE#         1544
  C:0B2CH         LINE#         1545
  C:0B2CH         LINE#         1547
  C:0B2FH         LINE#         1550
  C:0B2FH         LINE#         1551
  C:0B35H         LINE#         1553
  C:0B3DH         LINE#         1554
  C:0B3DH         LINE#         1555
  C:0B4DH         LINE#         1556
  C:0B5AH         LINE#         1558
  C:0B6DH         LINE#         1559
  C:0B7BH         LINE#         1561
BL51 BANKED LINKER/LOCATER V6.22.2.0                                                  09/18/2024  10:06:51  PAGE 26


  C:0B88H         LINE#         1562
  C:0B8DH         LINE#         1564
  C:0B97H         LINE#         1566
  C:0B97H         LINE#         1567
  C:0B9FH         LINE#         1568
  C:0B9FH         LINE#         1569
  C:0BA2H         LINE#         1570
  C:0BA2H         LINE#         1571
  C:0BA8H         LINE#         1573
  C:0BADH         LINE#         1576
  C:0BADH         LINE#         1577
  C:0BADH         LINE#         1578
  C:0BADH         LINE#         1579
  C:0BADH         LINE#         1580
  C:0BADH         LINE#         1581
  C:0BADH         LINE#         1584
  C:0BADH         LINE#         1585
  C:0BB2H         LINE#         1586
  C:0BB2H         LINE#         1587
  C:0BC3H         LINE#         1588
  C:0BC3H         LINE#         1590
  C:0BE0H         LINE#         1591
  C:0BE0H         LINE#         1592
  C:0BE0H         LINE#         1593
  C:0BE0H         LINE#         1594
  C:0BE5H         LINE#         1597
  C:0BE5H         LINE#         1599
  C:0BE5H         LINE#         1609
  C:0BF7H         LINE#         1610
  C:0BF7H         LINE#         1611
  C:0C01H         LINE#         1613
  C:0C15H         LINE#         1614
  C:0C1BH         LINE#         1615
  C:0C23H         LINE#         1616
  C:0C23H         LINE#         1617
  C:0C31H         LINE#         1618
  C:0C31H         LINE#         1619
  C:0C31H         LINE#         1620
  C:0C31H         LINE#         1621
  C:0C31H         LINE#         1622
  C:0C44H         LINE#         1623
  C:0C4AH         LINE#         1624
  C:0C4FH         LINE#         1626
  C:0C64H         LINE#         1627
  C:0C64H         LINE#         1628
  C:0C6AH         LINE#         1629
  C:0C6AH         LINE#         1631
  C:0C9DH         LINE#         1632
  C:0C9DH         LINE#         1633
  C:0C9DH         LINE#         1634
  C:0C9DH         LINE#         1635
  C:0CA6H         LINE#         1636
  C:0CA6H         LINE#         1637
  C:0CA7H         LINE#         1638
  C:0CA7H         LINE#         1639
  C:0CA7H         LINE#         1640
  C:0CA7H         LINE#         1641
BL51 BANKED LINKER/LOCATER V6.22.2.0                                                  09/18/2024  10:06:51  PAGE 27


  C:0CAAH         LINE#         1643
  C:0CAAH         LINE#         1644
  C:0CAAH         LINE#         1645
  C:0CAFH         LINE#         1646
  C:0CAFH         LINE#         1647
  C:0CAFH         LINE#         1649
  C:0CB2H         LINE#         1650
  C:0CB2H         LINE#         1651
  C:0CB2H         LINE#         1652
  C:0CB2H         LINE#         1653
  C:0CB4H         LINE#         1679
  C:0CB4H         LINE#         1680
  C:0CB4H         LINE#         1683
  C:0CB7H         LINE#         1690
  C:0CB7H         LINE#         1691
  C:0CB7H         LINE#         1693
  C:0CB7H         LINE#         1694
  C:0CB7H         LINE#         1697
  C:0CBAH         LINE#         1704
  C:0CBAH         LINE#         1705
  C:0CBAH         LINE#         1707
  C:0CBAH         LINE#         1708
  C:0CBAH         LINE#         1709
  C:0CC7H         LINE#         1710
  C:0CC7H         LINE#         1711
  C:0CC7H         LINE#         1731
  C:0CC7H         LINE#         1732
  C:0CC7H         LINE#         1733
  C:0CD4H         LINE#         1734
  C:0CD4H         LINE#         1735
  C:0CD4H         LINE#         1737
  C:0CD4H         LINE#         1738
  C:0CD4H         LINE#         1739
  C:0CD7H         LINE#         1740
  C:0CD7H         LINE#         1741
  C:0CD7H         LINE#         1743
  C:0CD7H         LINE#         1744
  C:0CD7H         LINE#         1745
  C:0CDAH         LINE#         1746
  C:0CDAH         LINE#         1747
  C:0CDAH         LINE#         1749
  C:0CDAH         LINE#         1750
  C:0CDAH         LINE#         1751
  C:0CE7H         LINE#         1752
  C:0CE7H         LINE#         1753
  C:0CE7H         LINE#         1755
  C:0CE7H         LINE#         1756
  C:0CE7H         LINE#         1757
  C:0CF4H         LINE#         1758
  C:0CF4H         LINE#         1759
  C:0CF4H         LINE#         1768
  C:0CF4H         LINE#         1769
  C:0CF4H         LINE#         1770
  C:0CF9H         LINE#         1771
  C:0CF9H         LINE#         1772
  C:0CF9H         LINE#         1773
  C:0CFBH         LINE#         1775
BL51 BANKED LINKER/LOCATER V6.22.2.0                                                  09/18/2024  10:06:51  PAGE 28


  C:0CFBH         LINE#         1776
  C:0CFBH         LINE#         1777
  C:0D00H         LINE#         1778
  C:0D06H         LINE#         1779
  C:0D0BH         LINE#         1780
  C:0D10H         LINE#         1781
  C:0D13H         LINE#         1782
  C:0D13H         LINE#         1783
  C:0D13H         LINE#         1785
  C:0D13H         LINE#         1786
  C:0D13H         LINE#         1787
  C:0D29H         LINE#         1788
  C:0D29H         LINE#         1789
  C:0D29H         LINE#         1790
  C:0D29H         LINE#         1791
  -------         ENDPROC       _IRF24GDATAHANDLE
  -------         PROC          ISTEPLESSBRIGHTNESSADJUSTMENTMAINTHREAD
  C:0082H         LINE#         1793
  C:0082H         LINE#         1794
  C:0082H         LINE#         1835
  -------         ENDPROC       ISTEPLESSBRIGHTNESSADJUSTMENTMAINTHREAD
  -------         PROC          _GLHOCP_EVENTCALLBACK
  D:0007H         SYMBOL        eEvent
  C:3C70H         LINE#         1837
  C:3C70H         LINE#         1838
  C:3C70H         LINE#         1839
  C:3C77H         LINE#         1840
  C:3C77H         LINE#         1841
  C:3C77H         LINE#         1842
  C:3C77H         LINE#         1843
  C:3C7DH         LINE#         1844
  C:3C7DH         LINE#         1845
  C:3C7EH         LINE#         1847
  C:3C7EH         LINE#         1848
  C:3C7EH         LINE#         1849
  C:3C83H         LINE#         1850
  C:3C86H         LINE#         1851
  C:3C89H         LINE#         1852
  C:3C89H         LINE#         1853
  C:3C89H         LINE#         1854
  C:3C89H         LINE#         1855
  -------         ENDPROC       _GLHOCP_EVENTCALLBACK
  -------         PROC          _IGETCHECKSUM
  X:0230H         SYMBOL        pData
  D:0005H         SYMBOL        u8Len
  -------         DO            
  D:0007H         SYMBOL        u8Ret
  D:0006H         SYMBOL        i
  -------         ENDDO         
  C:3AE1H         LINE#         1924
  C:3AE7H         LINE#         1925
  C:3AE7H         LINE#         1926
  C:3AE9H         LINE#         1927
  C:3AEAH         LINE#         1929
  C:3AEFH         LINE#         1930
  C:3AEFH         LINE#         1931
  C:3AFFH         LINE#         1932
BL51 BANKED LINKER/LOCATER V6.22.2.0                                                  09/18/2024  10:06:51  PAGE 29


  C:3B02H         LINE#         1934
  C:3B02H         LINE#         1935
  -------         ENDPROC       _IGETCHECKSUM
  -------         PROC          _IGETCHECKCRC
  X:0230H         SYMBOL        pData
  X:0233H         SYMBOL        u8Len
  -------         DO            
  D:0007H         SYMBOL        u8Ret
  D:0006H         SYMBOL        i
  -------         ENDDO         
  C:39D0H         LINE#         1937
  C:39D9H         LINE#         1938
  C:39D9H         LINE#         1939
  C:39DBH         LINE#         1940
  C:39DCH         LINE#         1942
  C:39E6H         LINE#         1943
  C:39E6H         LINE#         1944
  C:39F6H         LINE#         1945
  C:39F9H         LINE#         1947
  C:39F9H         LINE#         1948
  -------         ENDPROC       _IGETCHECKCRC
  -------         PROC          IREFRESHSYNCDATA
  C:1D72H         LINE#         1950
  C:1D72H         LINE#         1951
  C:1D72H         LINE#         1952
  C:1D78H         LINE#         1953
  C:1D80H         LINE#         1954
  C:1D91H         LINE#         1955
  C:1DA2H         LINE#         1956
  C:1DB3H         LINE#         1957
  C:1DBEH         LINE#         1958
  C:1DC6H         LINE#         1959
  C:1DCEH         LINE#         1960
  C:1DD6H         LINE#         1961
  C:1DDEH         LINE#         1962
  C:1DE6H         LINE#         1963
  C:1DEEH         LINE#         1964
  C:1DF6H         LINE#         1965
  C:1DFEH         LINE#         1966
  C:1E06H         LINE#         1967
  C:1E0EH         LINE#         1968
  C:1E16H         LINE#         1969
  C:1E1EH         LINE#         1970
  C:1E26H         LINE#         1971
  C:1E2EH         LINE#         1972
  C:1E36H         LINE#         1973
  C:1E3EH         LINE#         1974
  C:1E46H         LINE#         1975
  C:1E4EH         LINE#         1976
  C:1E56H         LINE#         1977
  C:1E5EH         LINE#         1978
  C:1E6EH         LINE#         1979
  C:1E7EH         LINE#         1980
  C:1E8EH         LINE#         1981
  C:1E98H         LINE#         1982
  C:1EA0H         LINE#         1983
  C:1EA8H         LINE#         1984
BL51 BANKED LINKER/LOCATER V6.22.2.0                                                  09/18/2024  10:06:51  PAGE 30


  C:1EB3H         LINE#         1985
  C:1EBEH         LINE#         1986
  C:1ECBH         LINE#         1987
  C:1ED5H         LINE#         1988
  C:1EE6H         LINE#         1989
  C:1EF7H         LINE#         1990
  C:1F08H         LINE#         1991
  C:1F12H         LINE#         1992
  C:1F1EH         LINE#         1993
  C:1F29H         LINE#         1994
  -------         ENDPROC       IREFRESHSYNCDATA
  -------         PROC          TIMER0_ISR
  C:3C3BH         LINE#         2005
  C:3C41H         LINE#         2007
  C:3C43H         LINE#         2009
  C:3C49H         LINE#         2022
  C:3C4CH         LINE#         2023
  C:3C4FH         LINE#         2024
  -------         ENDPROC       TIMER0_ISR
  -------         PROC          ISENDSYNCDATA
  C:3C8AH         LINE#         2026
  C:3C8AH         LINE#         2027
  C:3C8AH         LINE#         2028
  C:3C90H         LINE#         2030
  C:3C96H         LINE#         2031
  C:3C99H         LINE#         2033
  C:3C9CH         LINE#         2034
  C:3C9FH         LINE#         2036
  C:3CA1H         LINE#         2038
  C:3CA3H         LINE#         2039
  -------         ENDPROC       ISENDSYNCDATA
  -------         PROC          _IRECEIVESYNCHANDLE
  X:022DH         SYMBOL        pu8RxData
  D:0005H         SYMBOL        u8RxLen
  C:10B1H         LINE#         2041
  C:10B7H         LINE#         2042
  C:10B7H         LINE#         2043
  C:10BFH         LINE#         2044
  C:10BFH         LINE#         2046
  C:10BFH         LINE#         2048
  C:10CCH         LINE#         2049
  C:10CCH         LINE#         2051
  C:10CCH         LINE#         2053
  C:10E0H         LINE#         2054
  C:10E0H         LINE#         2056
  C:10E0H         LINE#         2058
  C:10F2H         LINE#         2059
  C:10F2H         LINE#         2061
  C:10F2H         LINE#         2063
  C:1103H         LINE#         2064
  C:1103H         LINE#         2066
  C:1103H         LINE#         2068
  C:1111H         LINE#         2069
  C:1111H         LINE#         2071
  C:1111H         LINE#         2073
  C:1119H         LINE#         2074
  C:1119H         LINE#         2076
BL51 BANKED LINKER/LOCATER V6.22.2.0                                                  09/18/2024  10:06:51  PAGE 31


  C:1119H         LINE#         2078
  C:1125H         LINE#         2079
  C:1125H         LINE#         2081
  C:1125H         LINE#         2088
  C:1191H         LINE#         2090
  C:1191H         LINE#         2092
  C:1191H         LINE#         2094
  C:119EH         LINE#         2095
  C:11A8H         LINE#         2096
  C:11AFH         LINE#         2097
  C:11B6H         LINE#         2098
  C:11BDH         LINE#         2099
  C:11C7H         LINE#         2100
  C:11D1H         LINE#         2101
  C:11DBH         LINE#         2102
  C:11E5H         LINE#         2103
  C:11EFH         LINE#         2104
  C:11F9H         LINE#         2105
  C:1256H         LINE#         2107
  C:12B8H         LINE#         2109
  C:12BBH         LINE#         2110
  C:12C8H         LINE#         2111
  C:12D0H         LINE#         2112
  C:12D0H         LINE#         2113
  C:12D6H         LINE#         2114
  C:12D6H         LINE#         2115
  C:12DEH         LINE#         2116
  C:12DEH         LINE#         2117
  C:12DEH         LINE#         2119
  C:12EBH         LINE#         2120
  C:12F5H         LINE#         2121
  C:12FFH         LINE#         2122
  C:1309H         LINE#         2123
  C:1313H         LINE#         2124
  C:131DH         LINE#         2125
  C:1327H         LINE#         2126
  C:1331H         LINE#         2127
  C:133BH         LINE#         2128
  C:1398H         LINE#         2130
  C:13A5H         LINE#         2132
  C:13ABH         LINE#         2133
  C:13B1H         LINE#         2134
  -------         ENDPROC       _IRECEIVESYNCHANDLE
  -------         PROC          ISENDSYNCMAINTHREAD
  C:2619H         LINE#         2136
  C:2619H         LINE#         2137
  C:2619H         LINE#         2138
  C:2621H         LINE#         2139
  C:2621H         LINE#         2140
  C:2622H         LINE#         2142
  C:2625H         LINE#         2143
  C:2633H         LINE#         2144
  C:2639H         LINE#         2145
  C:2642H         LINE#         2146
  C:2648H         LINE#         2147
  C:264BH         LINE#         2148
  C:264BH         LINE#         2149
BL51 BANKED LINKER/LOCATER V6.22.2.0                                                  09/18/2024  10:06:51  PAGE 32


  C:264DH         LINE#         2150
  C:264FH         LINE#         2151
  C:2654H         LINE#         2152
  C:2654H         LINE#         2153
  C:2654H         LINE#         2155
  C:265CH         LINE#         2156
  C:265CH         LINE#         2157
  C:2672H         LINE#         2158
  C:2672H         LINE#         2159
  C:2677H         LINE#         2160
  C:267CH         LINE#         2161
  C:267CH         LINE#         2162
  C:267CH         LINE#         2169
  C:2684H         LINE#         2170
  C:2684H         LINE#         2172
  C:2684H         LINE#         2174
  C:268DH         LINE#         2175
  C:268DH         LINE#         2177
  C:268DH         LINE#         2180
  C:2695H         LINE#         2181
  C:2695H         LINE#         2182
  C:26B8H         LINE#         2183
  C:26B8H         LINE#         2184
  C:26BDH         LINE#         2185
  C:26C0H         LINE#         2186
  C:26C0H         LINE#         2187
  C:26C0H         LINE#         2203
  C:26D0H         LINE#         2204
  C:26D0H         LINE#         2206
  C:26D0H         LINE#         2208
  C:26F7H         LINE#         2209
  C:26F7H         LINE#         2210
  C:2700H         LINE#         2212
  C:2706H         LINE#         2213
  C:2709H         LINE#         2214
  C:2709H         LINE#         2215
  -------         ENDPROC       ISENDSYNCMAINTHREAD
  -------         ENDMOD        GLH_APP_PROCESS

  -------         MODULE        GLH_LED_MODE
  C:0000H         SYMBOL        _ICE_DUMMY_
  X:035BH         PUBLIC        s_u8ColorIndex
  X:035CH         SYMBOL        s_u16CurrBn
  C:3C00H         PUBLIC        _GLHLM_FireWorksMode
  C:3DF5H         PUBLIC        _GLHLM_SetSwitchStatus
  C:3247H         SYMBOL        iJump
  C:2EF5H         SYMBOL        iBth
  X:035EH         SYMBOL        s_pfnModeShade
  C:2FEAH         SYMBOL        iFireWorks
  C:3BE2H         PUBLIC        _GLHLM_SetColorBuff
  C:2AFDH         SYMBOL        iOnOffFadeMainThread
  X:0361H         SYMBOL        s_u8StaticTargetB
  X:0362H         SYMBOL        s_u8StaticTargetC
  X:0363H         PUBLIC        u32LastRgbTime
  X:0367H         SYMBOL        s_u8StaticTargetG
  X:0368H         SYMBOL        s_u8Cnt
  X:0369H         SYMBOL        s_u8StaticTargetR
BL51 BANKED LINKER/LOCATER V6.22.2.0                                                  09/18/2024  10:06:51  PAGE 33


  X:036AH         PUBLIC        s_u8Flag1
  X:036BH         PUBLIC        s_u8Flag2
  X:036CH         SYMBOL        s_u8StaticTargetW
  C:3CD5H         PUBLIC        _GLHLM_SetBn
  X:036DH         SYMBOL        s_u8BretahProgressValue
  C:3D34H         PUBLIC        _GLHLM_BreathMode
  X:036EH         PUBLIC        s_u8CompleteFlag
  X:036FH         SYMBOL        s_bSwitchStatu
  C:3D1DH         SYMBOL        iCheckIsComplete
  C:32F5H         PUBLIC        _GLHLM_StaticModeImmediately
  C:3524H         PUBLIC        _GLHLM_StaticMode
  X:0370H         SYMBOL        s_u16TargetBn
  C:3B03H         PUBLIC        _GLHLM_FlashMode
  C:3BA5H         PUBLIC        _GLHLM_FadeMode
  C:3BC4H         PUBLIC        GLHLM_RenderProc
  C:1F2AH         PUBLIC        iStatic
  X:0372H         SYMBOL        s_u8CurrColorNum
  C:3B25H         SYMBOL        iResetParams
  C:3120H         SYMBOL        iFlash
  C:2516H         SYMBOL        iFade
  X:0373H         SYMBOL        s_u8OnOffValue
  X:0374H         PUBLIC        s_u8CurrB
  X:0375H         SYMBOL        s_sRgb
  X:038DH         PUBLIC        s_u8CurrC
  X:038EH         PUBLIC        s_u8CurrG
  C:3DEFH         PUBLIC        GLHLM_Init
  C:21D6H         SYMBOL        iBnFadeMainThread
  X:038FH         PUBLIC        s_u8CurrR
  X:0390H         SYMBOL        s_u8Speed
  X:0391H         PUBLIC        s_u8CurrW
  C:3C1EH         PUBLIC        _GLHLM_SetSpeed
  C:28BEH         PUBLIC        u16BnTable
  C:3DBEH         PUBLIC        GLHLM_GetModeIsComplete
  C:39FAH         PUBLIC        _GLHLM_JumpMode
  X:0392H         PUBLIC        s_u8Flag
  C:18E2H         SYMBOL        Com009E
  C:18E2H         SYMBOL        L?0159
  C:18E2H         SYMBOL        L?0160
  C:192EH         SYMBOL        L?0161
  C:192FH         SYMBOL        L?0162
  C:1933H         SYMBOL        L?0163
  C:1941H         SYMBOL        L?0164
  C:1941H         SYMBOL        L?0165
  C:1945H         SYMBOL        L?0166
  C:194BH         SYMBOL        L?0167
  C:1954H         SYMBOL        L?0168
  C:196FH         SYMBOL        L?0169
  C:198FH         SYMBOL        L?0170
  C:1990H         SYMBOL        L?0171
  C:199FH         SYMBOL        L?0172
  C:19A8H         SYMBOL        L?0173
  C:19B6H         SYMBOL        L?0174
  C:19CFH         SYMBOL        L?0175
  C:19D0H         SYMBOL        L?0176
  C:19DEH         SYMBOL        L?0177
  C:19DEH         SYMBOL        L?0178
  C:19E1H         SYMBOL        L?0179
BL51 BANKED LINKER/LOCATER V6.22.2.0                                                  09/18/2024  10:06:51  PAGE 34


  C:19ECH         SYMBOL        L?0180
  C:19ECH         SYMBOL        L?0181
  C:1A06H         SYMBOL        L?0182
  C:1A0EH         SYMBOL        L?0183
  C:1A0EH         SYMBOL        L?0184
  C:1A12H         SYMBOL        L?0185
  C:1A20H         SYMBOL        L?0186
  C:1A20H         SYMBOL        L?0187
  C:1A23H         SYMBOL        L?0188
  C:1A27H         SYMBOL        L?0189
  C:1A30H         SYMBOL        L?0190
  C:1A32H         SYMBOL        L?0191
  C:1A3CH         SYMBOL        L?0192
  C:1A46H         SYMBOL        L?0193
  C:1A46H         SYMBOL        L?0194
  C:1A5DH         SYMBOL        L?0195
  C:1A5DH         SYMBOL        L?0196
  C:1A65H         SYMBOL        L?0197
  C:1A65H         SYMBOL        L?0198
  C:1A6DH         SYMBOL        L?0199
  C:1A6DH         SYMBOL        L?0200
  C:1A7DH         SYMBOL        L?0201
  C:1A87H         SYMBOL        L?0202
  C:1A91H         SYMBOL        L?0203
  C:1A91H         SYMBOL        L?0204
  C:1A92H         SYMBOL        L?0205
  C:1A99H         SYMBOL        L?0206
  C:1AAEH         SYMBOL        L?0207
  C:1AC1H         SYMBOL        L?0208
  C:1AC3H         SYMBOL        L?0209
  C:1ACBH         SYMBOL        L?0210
  C:1ACBH         SYMBOL        L?0211
  C:1AD1H         SYMBOL        L?0212
  C:1ADFH         SYMBOL        L?0213
  C:1ADFH         SYMBOL        L?0214
  C:1AE8H         SYMBOL        L?0215
  C:1AEBH         SYMBOL        L?0216
  C:1AF2H         SYMBOL        L?0217
  C:1AFFH         SYMBOL        L?0218
  C:1B0CH         SYMBOL        L?0219
  C:1B19H         SYMBOL        L?0220
  C:1B25H         SYMBOL        L?0221
  C:1B2FH         SYMBOL        L?0222
  C:1B2FH         SYMBOL        L?0223
  C:1B36H         SYMBOL        L?0224
  C:1B36H         SYMBOL        L?0225
  C:1B3DH         SYMBOL        L?0226
  C:1B3DH         SYMBOL        L?0227
  -------         PROC          COM009E
  -------         ENDPROC       COM009E
  -------         PROC          IRESETPARAMS
  C:3B25H         LINE#         158
  C:3B25H         LINE#         159
  C:3B25H         LINE#         160
  C:3B2AH         LINE#         161
  C:3B2EH         LINE#         162
  C:3B30H         LINE#         163
BL51 BANKED LINKER/LOCATER V6.22.2.0                                                  09/18/2024  10:06:51  PAGE 35


  C:3B34H         LINE#         164
  C:3B38H         LINE#         165
  C:3B38H         LINE#         166
  C:3B38H         LINE#         167
  C:3B3BH         LINE#         168
  C:3B3FH         LINE#         169
  C:3B43H         LINE#         170
  C:3B45H         LINE#         171
  -------         ENDPROC       IRESETPARAMS
  -------         PROC          GLHLM_INIT
  C:3DEFH         LINE#         173
  C:3DEFH         LINE#         174
  C:3DEFH         LINE#         175
  C:3DF2H         LINE#         176
  -------         ENDPROC       GLHLM_INIT
  -------         PROC          IONOFFFADEMAINTHREAD
  -------         DO            
  X:0353H         SYMBOL        s_u32LastOnOffChangeTime
  -------         ENDDO         
  C:2AFDH         LINE#         181
  C:2AFDH         LINE#         182
  C:2AFDH         LINE#         185
  C:2B0EH         LINE#         186
  C:2B0EH         LINE#         187
  C:2B14H         LINE#         189
  C:2B1CH         LINE#         190
  C:2B1CH         LINE#         191
  C:2B2FH         LINE#         192
  C:2B2FH         LINE#         194
  C:2B2FH         LINE#         196
  C:2B3BH         LINE#         197
  C:2B3BH         LINE#         198
  C:2B3EH         LINE#         199
  C:2B40H         LINE#         201
  C:2B40H         LINE#         202
  C:2B46H         LINE#         203
  C:2B46H         LINE#         204
  C:2B46H         LINE#         205
  C:2B48H         LINE#         207
  C:2B48H         LINE#         208
  C:2B51H         LINE#         209
  C:2B51H         LINE#         210
  C:2B59H         LINE#         211
  C:2B61H         LINE#         212
  C:2B69H         LINE#         213
  C:2B71H         LINE#         214
  C:2B79H         LINE#         215
  C:2B89H         LINE#         217
  C:2B89H         LINE#         219
  C:2B8FH         LINE#         220
  C:2B8FH         LINE#         221
  C:2B95H         LINE#         222
  C:2B97H         LINE#         224
  C:2B97H         LINE#         225
  C:2B9CH         LINE#         226
  C:2B9FH         LINE#         227
  C:2BA6H         LINE#         228
BL51 BANKED LINKER/LOCATER V6.22.2.0                                                  09/18/2024  10:06:51  PAGE 36


  C:2BA6H         LINE#         229
  C:2BAEH         LINE#         230
  C:2BAEH         LINE#         231
  C:2BAEH         LINE#         232
  -------         ENDPROC       IONOFFFADEMAINTHREAD
  -------         PROC          IBNFADEMAINTHREAD
  -------         DO            
  X:0357H         SYMBOL        s_u32LastBnChangeTime
  X:022CH         SYMBOL        u16BnValueChange
  X:022EH         SYMBOL        i
  -------         ENDDO         
  C:21D6H         LINE#         235
  C:21D6H         LINE#         236
  C:21D6H         LINE#         238
  C:21DDH         LINE#         239
  C:21DFH         LINE#         241
  C:21E8H         LINE#         242
  C:21E8H         LINE#         244
  C:21E8H         LINE#         253
  C:21FBH         LINE#         254
  C:21FBH         LINE#         255
  C:2209H         LINE#         257
  C:2219H         LINE#         258
  C:2219H         LINE#         259
  C:2230H         LINE#         260
  C:2230H         LINE#         261
  C:2230H         LINE#         262
  C:2230H         LINE#         263
  C:2238H         LINE#         264
  C:2243H         LINE#         265
  C:2243H         LINE#         266
  C:2249H         LINE#         267
  C:2249H         LINE#         268
  C:2272H         LINE#         270
  C:2288H         LINE#         271
  C:2288H         LINE#         272
  C:229DH         LINE#         273
  C:229DH         LINE#         274
  C:22ACH         LINE#         275
  C:22AEH         LINE#         277
  C:22AEH         LINE#         278
  C:22B5H         LINE#         279
  C:22B5H         LINE#         280
  C:22B5H         LINE#         281
  C:22B7H         LINE#         283
  C:22B7H         LINE#         284
  C:22D4H         LINE#         285
  C:22D4H         LINE#         286
  C:22DFH         LINE#         287
  C:22E1H         LINE#         289
  C:22E1H         LINE#         290
  C:22E8H         LINE#         291
  C:22E8H         LINE#         292
  C:22F3H         LINE#         293
  C:22F3H         LINE#         294
  C:22F3H         LINE#         295
  -------         ENDPROC       IBNFADEMAINTHREAD
BL51 BANKED LINKER/LOCATER V6.22.2.0                                                  09/18/2024  10:06:51  PAGE 37


  -------         PROC          GLHLM_RENDERPROC
  C:3BC4H         LINE#         297
  C:3BC4H         LINE#         298
  C:3BC4H         LINE#         299
  C:3BD2H         LINE#         300
  C:3BD2H         LINE#         301
  C:3BDCH         LINE#         302
  C:3BDCH         LINE#         304
  C:3BDFH         LINE#         305
  -------         ENDPROC       GLHLM_RENDERPROC
  -------         PROC          GLHLM_GETMODEISCOMPLETE
  C:3DBEH         LINE#         308
  C:3DBEH         LINE#         309
  C:3DBEH         LINE#         310
  C:3DCBH         LINE#         311
  -------         ENDPROC       GLHLM_GETMODEISCOMPLETE
  -------         PROC          ICHECKISCOMPLETE
  C:3D1DH         LINE#         313
  C:3D1DH         LINE#         314
  C:3D1DH         LINE#         315
  C:3D23H         LINE#         316
  C:3D28H         LINE#         317
  C:3D28H         LINE#         318
  C:3D29H         LINE#         319
  C:3D2EH         LINE#         320
  C:3D2FH         LINE#         322
  C:3D2FH         LINE#         323
  C:3D33H         LINE#         324
  C:3D33H         LINE#         325
  -------         ENDPROC       ICHECKISCOMPLETE
  -------         PROC          _GLHLM_SETCOLORBUFF
  D:0007H         SYMBOL        u8Index
  D:0005H         SYMBOL        u8R
  D:0003H         SYMBOL        u8G
  X:03B3H         SYMBOL        u8B
  C:3BE2H         LINE#         327
  C:3BE2H         LINE#         328
  C:3BE2H         LINE#         329
  C:3BE9H         LINE#         330
  C:3BE9H         LINE#         332
  C:3BE9H         LINE#         334
  C:3BEFH         LINE#         335
  C:3BF4H         LINE#         336
  C:3BFFH         LINE#         337
  -------         ENDPROC       _GLHLM_SETCOLORBUFF
  -------         PROC          ISTATIC
  C:1F2AH         LINE#         339
  C:1F2AH         LINE#         340
  C:1F2AH         LINE#         341
  C:1F33H         LINE#         342
  C:1F33H         LINE#         344
  C:1F33H         LINE#         346
  C:1F44H         LINE#         347
  C:1F44H         LINE#         349
  C:1F44H         LINE#         350
  C:1F47H         LINE#         352
  C:1F4FH         LINE#         353
BL51 BANKED LINKER/LOCATER V6.22.2.0                                                  09/18/2024  10:06:51  PAGE 38


  C:1F4FH         LINE#         354
  C:1F54H         LINE#         355
  C:1F54H         LINE#         356
  C:1F57H         LINE#         357
  C:1F59H         LINE#         359
  C:1F59H         LINE#         360
  C:1F61H         LINE#         361
  C:1F61H         LINE#         362
  C:1F63H         LINE#         364
  C:1F63H         LINE#         365
  C:1F77H         LINE#         366
  C:1F77H         LINE#         367
  C:1F7AH         LINE#         368
  C:1F7CH         LINE#         370
  C:1F7CH         LINE#         371
  C:1F7EH         LINE#         372
  C:1F7EH         LINE#         373
  C:1F7EH         LINE#         375
  C:1F89H         LINE#         376
  C:1F89H         LINE#         377
  C:1F8EH         LINE#         378
  C:1F8EH         LINE#         379
  C:1F91H         LINE#         380
  C:1F93H         LINE#         382
  C:1F93H         LINE#         383
  C:1F9BH         LINE#         384
  C:1F9BH         LINE#         385
  C:1F9DH         LINE#         387
  C:1F9DH         LINE#         388
  C:1FB1H         LINE#         389
  C:1FB1H         LINE#         390
  C:1FB4H         LINE#         391
  C:1FB6H         LINE#         393
  C:1FB6H         LINE#         394
  C:1FB8H         LINE#         395
  C:1FB8H         LINE#         396
  C:1FB8H         LINE#         398
  C:1FC3H         LINE#         399
  C:1FC3H         LINE#         400
  C:1FC8H         LINE#         401
  C:1FC8H         LINE#         402
  C:1FCBH         LINE#         403
  C:1FCDH         LINE#         405
  C:1FCDH         LINE#         406
  C:1FD5H         LINE#         407
  C:1FD5H         LINE#         408
  C:1FD7H         LINE#         410
  C:1FD7H         LINE#         411
  C:1FEBH         LINE#         412
  C:1FEBH         LINE#         413
  C:1FEEH         LINE#         414
  C:1FF0H         LINE#         416
  C:1FF0H         LINE#         417
  C:1FF2H         LINE#         418
  C:1FF2H         LINE#         419
  C:1FF2H         LINE#         421
  C:2000H         LINE#         422
BL51 BANKED LINKER/LOCATER V6.22.2.0                                                  09/18/2024  10:06:51  PAGE 39


  C:2000H         LINE#         423
  C:2005H         LINE#         424
  C:2005H         LINE#         425
  C:2008H         LINE#         426
  C:200AH         LINE#         428
  C:200AH         LINE#         429
  C:2012H         LINE#         430
  C:2012H         LINE#         431
  C:2014H         LINE#         433
  C:2014H         LINE#         434
  C:2028H         LINE#         435
  C:2028H         LINE#         436
  C:202BH         LINE#         437
  C:202DH         LINE#         439
  C:202DH         LINE#         440
  C:202FH         LINE#         441
  C:202FH         LINE#         442
  C:202FH         LINE#         444
  C:203DH         LINE#         445
  C:203DH         LINE#         446
  C:2042H         LINE#         447
  C:2042H         LINE#         448
  C:2045H         LINE#         449
  C:2047H         LINE#         451
  C:2047H         LINE#         452
  C:204FH         LINE#         453
  C:204FH         LINE#         454
  C:2051H         LINE#         456
  C:2051H         LINE#         457
  C:2065H         LINE#         458
  C:2065H         LINE#         459
  C:2068H         LINE#         460
  C:206AH         LINE#         462
  C:206AH         LINE#         463
  C:206CH         LINE#         464
  C:206CH         LINE#         465
  C:206CH         LINE#         467
  C:2092H         LINE#         468
  -------         ENDPROC       ISTATIC
  -------         PROC          _GLHLM_STATICMODE
  D:0007H         SYMBOL        u8R
  D:0005H         SYMBOL        u8G
  D:0003H         SYMBOL        u8B
  X:02CAH         SYMBOL        u8C
  X:02CBH         SYMBOL        u8W
  C:3524H         LINE#         476
  C:3524H         LINE#         477
  C:3524H         LINE#         478
  C:3529H         LINE#         479
  C:352EH         LINE#         480
  C:3533H         LINE#         481
  C:353BH         LINE#         482
  C:3542H         LINE#         484
  C:354CH         LINE#         485
  -------         ENDPROC       _GLHLM_STATICMODE
  -------         PROC          _GLHLM_STATICMODEIMMEDIATELY
  D:0007H         SYMBOL        u8R
BL51 BANKED LINKER/LOCATER V6.22.2.0                                                  09/18/2024  10:06:51  PAGE 40


  D:0006H         SYMBOL        u8G
  D:0003H         SYMBOL        u8B
  X:03A4H         SYMBOL        u8C
  X:03A5H         SYMBOL        u8W
  C:32F5H         LINE#         494
  C:32F7H         LINE#         495
  C:32F7H         LINE#         496
  C:32FAH         LINE#         498
  C:3300H         LINE#         499
  C:3305H         LINE#         500
  C:330AH         LINE#         501
  C:3312H         LINE#         502
  C:331AH         LINE#         504
  C:333FH         LINE#         505
  C:3348H         LINE#         506
  -------         ENDPROC       _GLHLM_STATICMODEIMMEDIATELY
  -------         PROC          IFLASH
  C:3120H         LINE#         508
  C:3120H         LINE#         509
  C:3120H         LINE#         510
  C:3126H         LINE#         511
  C:3126H         LINE#         513
  C:3126H         LINE#         515
  C:312FH         LINE#         516
  C:312FH         LINE#         518
  C:312FH         LINE#         519
  C:3132H         LINE#         521
  C:3138H         LINE#         522
  C:3138H         LINE#         523
  C:3139H         LINE#         524
  C:3139H         LINE#         525
  C:313CH         LINE#         526
  C:314EH         LINE#         527
  C:3151H         LINE#         528
  C:3153H         LINE#         530
  C:3153H         LINE#         531
  C:3153H         LINE#         532
  C:315AH         LINE#         533
  C:3162H         LINE#         534
  C:3173H         LINE#         535
  C:3173H         LINE#         537
  C:3184H         LINE#         538
  -------         ENDPROC       IFLASH
  -------         PROC          _GLHLM_FLASHMODE
  D:0007H         SYMBOL        u8ColorNum
  C:3B03H         LINE#         546
  C:3B03H         LINE#         547
  C:3B03H         LINE#         548
  C:3B0BH         LINE#         549
  C:3B0BH         LINE#         551
  C:3B0BH         LINE#         553
  C:3B0BH         LINE#         554
  C:3B0BH         LINE#         556
  C:3B15H         LINE#         558
  C:3B24H         LINE#         559
  -------         ENDPROC       _GLHLM_FLASHMODE
  -------         PROC          IBTH
BL51 BANKED LINKER/LOCATER V6.22.2.0                                                  09/18/2024  10:06:51  PAGE 41


  C:2EF5H         LINE#         561
  C:2EF5H         LINE#         562
  C:2EF5H         LINE#         563
  C:2EFBH         LINE#         564
  C:2EFBH         LINE#         566
  C:2EFBH         LINE#         568
  C:2F03H         LINE#         569
  C:2F03H         LINE#         571
  C:2F03H         LINE#         572
  C:2F06H         LINE#         574
  C:2F0CH         LINE#         575
  C:2F0CH         LINE#         577
  C:2F0CH         LINE#         579
  C:2F12H         LINE#         580
  C:2F12H         LINE#         581
  C:2F17H         LINE#         582
  C:2F17H         LINE#         583
  C:2F1AH         LINE#         584
  C:2F1CH         LINE#         586
  C:2F1CH         LINE#         587
  C:2F21H         LINE#         588
  C:2F21H         LINE#         590
  C:2F21H         LINE#         591
  C:2F21H         LINE#         592
  C:2F24H         LINE#         593
  C:2F36H         LINE#         595
  C:2F3CH         LINE#         596
  C:2F3CH         LINE#         597
  C:2F40H         LINE#         599
  C:2F43H         LINE#         600
  C:2F43H         LINE#         601
  C:2F43H         LINE#         603
  C:2F43H         LINE#         604
  C:2F48H         LINE#         605
  C:2F48H         LINE#         606
  C:2F4BH         LINE#         607
  C:2F4DH         LINE#         609
  C:2F4DH         LINE#         610
  C:2F50H         LINE#         611
  C:2F50H         LINE#         613
  C:2F50H         LINE#         614
  C:2F50H         LINE#         615
  C:2F53H         LINE#         616
  C:2F65H         LINE#         618
  C:2F6CH         LINE#         619
  C:2F6CH         LINE#         620
  C:2F71H         LINE#         622
  C:2F71H         LINE#         623
  C:2F71H         LINE#         624
  -------         ENDPROC       IBTH
  -------         PROC          _GLHLM_BREATHMODE
  D:0007H         SYMBOL        u8ColorNum
  C:3D34H         LINE#         632
  C:3D34H         LINE#         633
  C:3D34H         LINE#         634
  C:3D3CH         LINE#         635
  C:3D3CH         LINE#         637
BL51 BANKED LINKER/LOCATER V6.22.2.0                                                  09/18/2024  10:06:51  PAGE 42


  C:3D3CH         LINE#         639
  C:3D3CH         LINE#         641
  C:3D3CH         LINE#         643
  C:3D44H         LINE#         645
  C:3D4AH         LINE#         646
  -------         ENDPROC       _GLHLM_BREATHMODE
  -------         PROC          IFADE
  C:2516H         LINE#         648
  C:2516H         LINE#         649
  C:2516H         LINE#         650
  C:251FH         LINE#         651
  C:251FH         LINE#         653
  C:251FH         LINE#         655
  C:252AH         LINE#         656
  C:252AH         LINE#         658
  C:252AH         LINE#         659
  C:252DH         LINE#         661
  C:2536H         LINE#         662
  C:2536H         LINE#         664
  C:2536H         LINE#         666
  C:253EH         LINE#         667
  C:253EH         LINE#         668
  C:2543H         LINE#         669
  C:2543H         LINE#         670
  C:2546H         LINE#         671
  C:2548H         LINE#         673
  C:2548H         LINE#         674
  C:2550H         LINE#         675
  C:2550H         LINE#         676
  C:2552H         LINE#         678
  C:2552H         LINE#         679
  C:255EH         LINE#         680
  C:255EH         LINE#         681
  C:2561H         LINE#         682
  C:2563H         LINE#         684
  C:2563H         LINE#         685
  C:2568H         LINE#         686
  C:2568H         LINE#         687
  C:2568H         LINE#         689
  C:2577H         LINE#         690
  C:2577H         LINE#         691
  C:257CH         LINE#         692
  C:257CH         LINE#         693
  C:257FH         LINE#         694
  C:2581H         LINE#         696
  C:2581H         LINE#         697
  C:258DH         LINE#         698
  C:258DH         LINE#         699
  C:258FH         LINE#         701
  C:258FH         LINE#         702
  C:259FH         LINE#         703
  C:259FH         LINE#         704
  C:25A2H         LINE#         705
  C:25A4H         LINE#         707
  C:25A4H         LINE#         708
  C:25A9H         LINE#         709
  C:25A9H         LINE#         710
BL51 BANKED LINKER/LOCATER V6.22.2.0                                                  09/18/2024  10:06:51  PAGE 43


  C:25A9H         LINE#         712
  C:25B4H         LINE#         713
  C:25B4H         LINE#         714
  C:25B9H         LINE#         715
  C:25B9H         LINE#         716
  C:25BCH         LINE#         717
  C:25BEH         LINE#         719
  C:25BEH         LINE#         720
  C:25C6H         LINE#         721
  C:25C6H         LINE#         722
  C:25C8H         LINE#         724
  C:25C8H         LINE#         725
  C:25D6H         LINE#         726
  C:25D6H         LINE#         727
  C:25D9H         LINE#         728
  C:25DBH         LINE#         730
  C:25DBH         LINE#         731
  C:25E0H         LINE#         732
  C:25E0H         LINE#         733
  C:25E0H         LINE#         735
  C:25F2H         LINE#         737
  C:2615H         LINE#         739
  C:2615H         LINE#         740
  C:2618H         LINE#         741
  C:2618H         LINE#         742
  -------         ENDPROC       IFADE
  -------         PROC          _GLHLM_FADEMODE
  D:0007H         SYMBOL        u8ColorNum
  C:3BA5H         LINE#         750
  C:3BA5H         LINE#         751
  C:3BA5H         LINE#         752
  C:3BADH         LINE#         753
  C:3BADH         LINE#         755
  C:3BADH         LINE#         757
  C:3BB0H         LINE#         758
  C:3BB5H         LINE#         760
  C:3BB5H         LINE#         762
  C:3BBDH         LINE#         764
  C:3BC3H         LINE#         765
  -------         ENDPROC       _GLHLM_FADEMODE
  -------         PROC          IJUMP
  C:3247H         LINE#         767
  C:3247H         LINE#         768
  C:3247H         LINE#         769
  C:324DH         LINE#         770
  C:324DH         LINE#         772
  C:324DH         LINE#         774
  C:3256H         LINE#         775
  C:3256H         LINE#         777
  C:3256H         LINE#         778
  C:3259H         LINE#         780
  C:325EH         LINE#         781
  C:325EH         LINE#         782
  C:325FH         LINE#         783
  C:3264H         LINE#         784
  C:3275H         LINE#         786
  C:3275H         LINE#         788
BL51 BANKED LINKER/LOCATER V6.22.2.0                                                  09/18/2024  10:06:51  PAGE 44


  C:3275H         LINE#         789
  C:3279H         LINE#         790
  C:3279H         LINE#         792
  C:3279H         LINE#         793
  C:3280H         LINE#         794
  C:3288H         LINE#         795
  C:3299H         LINE#         797
  C:329FH         LINE#         798
  -------         ENDPROC       IJUMP
  -------         PROC          _GLHLM_JUMPMODE
  D:0007H         SYMBOL        u8ColorNum
  C:39FAH         LINE#         807
  C:39FAH         LINE#         808
  C:39FAH         LINE#         809
  C:3A02H         LINE#         810
  C:3A02H         LINE#         812
  C:3A02H         LINE#         814
  C:3A02H         LINE#         816
  C:3A02H         LINE#         818
  C:3A0CH         LINE#         820
  C:3A23H         LINE#         821
  -------         ENDPROC       _GLHLM_JUMPMODE
  -------         PROC          IFIREWORKS
  C:2FEAH         LINE#         823
  C:2FEAH         LINE#         824
  C:2FEAH         LINE#         825
  C:2FF0H         LINE#         826
  C:2FF0H         LINE#         828
  C:2FF0H         LINE#         830
  C:2FF8H         LINE#         831
  C:2FF8H         LINE#         833
  C:2FF8H         LINE#         834
  C:2FFBH         LINE#         836
  C:3001H         LINE#         837
  C:3001H         LINE#         839
  C:3001H         LINE#         841
  C:3007H         LINE#         842
  C:3007H         LINE#         843
  C:300CH         LINE#         844
  C:300CH         LINE#         845
  C:300FH         LINE#         846
  C:3011H         LINE#         848
  C:3011H         LINE#         849
  C:3014H         LINE#         850
  C:3014H         LINE#         852
  C:301BH         LINE#         853
  C:301BH         LINE#         854
  C:301FH         LINE#         855
  C:3022H         LINE#         856
  C:3022H         LINE#         857
  C:3022H         LINE#         859
  C:3022H         LINE#         860
  C:3027H         LINE#         861
  C:3027H         LINE#         862
  C:302AH         LINE#         863
  C:302CH         LINE#         865
  C:302CH         LINE#         866
BL51 BANKED LINKER/LOCATER V6.22.2.0                                                  09/18/2024  10:06:51  PAGE 45


  C:3031H         LINE#         867
  C:3031H         LINE#         869
  C:3031H         LINE#         870
  C:3031H         LINE#         871
  C:3034H         LINE#         872
  C:3046H         LINE#         874
  C:304CH         LINE#         875
  C:304CH         LINE#         876
  C:3051H         LINE#         877
  C:3051H         LINE#         878
  C:3051H         LINE#         879
  -------         ENDPROC       IFIREWORKS
  -------         PROC          _GLHLM_FIREWORKSMODE
  D:0007H         SYMBOL        u8ColorNum
  C:3C00H         LINE#         887
  C:3C00H         LINE#         888
  C:3C00H         LINE#         889
  C:3C08H         LINE#         890
  C:3C08H         LINE#         892
  C:3C08H         LINE#         894
  C:3C0BH         LINE#         895
  C:3C0EH         LINE#         897
  C:3C0EH         LINE#         899
  C:3C17H         LINE#         901
  C:3C1DH         LINE#         902
  -------         ENDPROC       _GLHLM_FIREWORKSMODE
  -------         PROC          _GLHLM_SETSPEED
  D:0007H         SYMBOL        u8Speed
  C:3C1EH         LINE#         912
  C:3C1EH         LINE#         913
  C:3C1EH         LINE#         914
  C:3C25H         LINE#         915
  C:3C25H         LINE#         916
  C:3C2BH         LINE#         917
  C:3C2CH         LINE#         918
  C:3C34H         LINE#         919
  C:3C34H         LINE#         920
  C:3C37H         LINE#         921
  C:3C38H         LINE#         923
  C:3C38H         LINE#         924
  C:3C3AH         LINE#         925
  C:3C3AH         LINE#         926
  -------         ENDPROC       _GLHLM_SETSPEED
  -------         PROC          _GLHLM_SETBN
  D:0007H         SYMBOL        u8bn
  C:3CD5H         LINE#         928
  C:3CD5H         LINE#         929
  C:3CD5H         LINE#         930
  C:3CDCH         LINE#         931
  C:3CDCH         LINE#         933
  C:3CDCH         LINE#         935
  C:3CECH         LINE#         936
  -------         ENDPROC       _GLHLM_SETBN
  -------         PROC          _GLHLM_SETSWITCHSTATUS
  D:0007H         SYMBOL        bSwitch
  C:3DF5H         LINE#         938
  C:3DF5H         LINE#         939
BL51 BANKED LINKER/LOCATER V6.22.2.0                                                  09/18/2024  10:06:51  PAGE 46


  C:3DF5H         LINE#         940
  C:3DFAH         LINE#         941
  -------         ENDPROC       _GLHLM_SETSWITCHSTATUS
  -------         ENDMOD        GLH_LED_MODE

  -------         MODULE        GLH_RGB
  C:0000H         SYMBOL        _ICE_DUMMY_
  C:36E7H         PUBLIC        _GLHRGB_SetOnOffValue
  C:3E01H         PUBLIC        GLHRGB_Init
  C:32A0H         PUBLIC        _GLHRGB_SetColor
  X:0393H         SYMBOL        s_u8LastB
  X:0394H         SYMBOL        s_u8LastC
  X:0395H         SYMBOL        s_u8LastG
  X:0396H         SYMBOL        s_u16Bn
  X:0398H         SYMBOL        s_u8OnOffStateValue
  X:0399H         SYMBOL        s_u8LastR
  X:039AH         SYMBOL        s_u8LastW
  C:36A9H         PUBLIC        _GLHRGB_SetBn
  C:3A24H         SYMBOL        Com000B
  C:3A24H         SYMBOL        L?0012
  C:3A27H         SYMBOL        L?0013
  C:3A28H         SYMBOL        L?0014
  C:3A2BH         SYMBOL        L?0015
  C:3A2EH         SYMBOL        L?0016
  -------         PROC          COM000B
  -------         ENDPROC       COM000B
  -------         PROC          GLHRGB_INIT
  C:3E01H         LINE#         20
  C:3E01H         LINE#         21
  C:3E01H         LINE#         22
  -------         ENDPROC       GLHRGB_INIT
  -------         PROC          _GLHRGB_SETCOLOR
  X:02CCH         SYMBOL        eCh
  X:02CDH         SYMBOL        u8Value
  C:32A0H         LINE#         26
  C:32A8H         LINE#         27
  C:32A8H         LINE#         28
  C:32B2H         LINE#         29
  C:32C8H         LINE#         30
  C:32C8H         LINE#         31
  C:32C8H         LINE#         32
  C:32C8H         LINE#         33
  C:32D0H         LINE#         34
  C:32D0H         LINE#         35
  C:32D1H         LINE#         37
  C:32D1H         LINE#         38
  C:32D1H         LINE#         39
  C:32D9H         LINE#         40
  C:32D9H         LINE#         41
  C:32DAH         LINE#         43
  C:32DAH         LINE#         44
  C:32DAH         LINE#         45
  C:32E2H         LINE#         46
  C:32E2H         LINE#         47
  C:32E3H         LINE#         49
  C:32E3H         LINE#         50
  C:32E3H         LINE#         51
BL51 BANKED LINKER/LOCATER V6.22.2.0                                                  09/18/2024  10:06:51  PAGE 47


  C:32EBH         LINE#         52
  C:32EBH         LINE#         53
  C:32ECH         LINE#         55
  C:32ECH         LINE#         56
  C:32ECH         LINE#         57
  C:32F4H         LINE#         58
  C:32F4H         LINE#         59
  C:32F4H         LINE#         60
  C:32F4H         LINE#         61
  -------         ENDPROC       _GLHRGB_SETCOLOR
  -------         PROC          _GLHRGB_SETBN
  D:0006H         SYMBOL        u16Bn
  C:36A9H         LINE#         63
  C:36A9H         LINE#         64
  C:36A9H         LINE#         65
  C:36B1H         LINE#         67
  C:36BCH         LINE#         68
  C:36C9H         LINE#         69
  C:36D1H         LINE#         70
  C:36DCH         LINE#         71
  -------         ENDPROC       _GLHRGB_SETBN
  -------         PROC          _GLHRGB_SETONOFFVALUE
  D:0007H         SYMBOL        u8OnOffStateValue
  C:36E7H         LINE#         74
  C:36E7H         LINE#         75
  C:36E7H         LINE#         76
  C:36ECH         LINE#         78
  C:36F5H         LINE#         79
  C:3705H         LINE#         80
  C:370DH         LINE#         81
  C:3718H         LINE#         82
  -------         ENDPROC       _GLHRGB_SETONOFFVALUE
  -------         ENDMOD        GLH_RGB

  -------         MODULE        GLH_SYS_TICK
  C:0000H         SYMBOL        _ICE_DUMMY_
  D:0080H         PUBLIC        P0
  D:0090H         PUBLIC        P1
  D:00A0H         PUBLIC        P2
  D:00B0H         PUBLIC        P3
  C:3DAFH         SYMBOL        iTimerInit
  D:009CH         PUBLIC        EIE1
  B:00A8H.7       PUBLIC        EA
  C:3798H         SYMBOL        Timer3_ISR
  D:00D8H         PUBLIC        PWMCON0
  D:00A8H         PUBLIC        IE
  D:00B8H         PUBLIC        IP
  D:0008H         PUBLIC        GulSystickCount
  C:2F72H         SYMBOL        _Timer3_INT_Initial
  D:0098H         PUBLIC        SCON
  D:0088H         PUBLIC        TCON
  D:0091H         PUBLIC        SFRS
  D:00F8H         PUBLIC        SCON_1
  D:00C6H         PUBLIC        RH3
  D:00C5H         PUBLIC        RL3
  C:37FFH         PUBLIC        GLHST_Wakeup
  D:00E8H         PUBLIC        ADCCON0
BL51 BANKED LINKER/LOCATER V6.22.2.0                                                  09/18/2024  10:06:51  PAGE 48


  C:0038H         SYMBOL        iInitCLK
  D:00C0H         PUBLIC        I2CON
  C:3800H         PUBLIC        GLHST_Pause
  D:00C8H         PUBLIC        T2CON
  D:00C4H         PUBLIC        T3CON
  C:3E06H         PUBLIC        GLHST_Start
  C:3DFBH         PUBLIC        GLHST_Init
  D:00D0H         PUBLIC        PSW
  -------         PROC          IINITCLK
  C:0038H         LINE#         32
  C:0038H         LINE#         33
  C:0038H         LINE#         34
  -------         ENDPROC       IINITCLK
  -------         PROC          ITIMERINIT
  C:3DAFH         LINE#         37
  C:3DAFH         LINE#         38
  C:3DAFH         LINE#         39
  C:3DB8H         LINE#         40
  C:3DBAH         LINE#         41
  C:3DBDH         LINE#         42
  -------         ENDPROC       ITIMERINIT
  -------         PROC          GLHST_INIT
  C:3DFBH         LINE#         44
  C:3DFBH         LINE#         45
  C:3DFBH         LINE#         46
  C:3DFEH         LINE#         47
  -------         ENDPROC       GLHST_INIT
  -------         PROC          GLHST_WAKEUP
  C:37FFH         LINE#         50
  C:37FFH         LINE#         51
  C:37FFH         LINE#         53
  -------         ENDPROC       GLHST_WAKEUP
  -------         PROC          GLHST_PAUSE
  C:3800H         LINE#         55
  C:3800H         LINE#         56
  C:3800H         LINE#         58
  -------         ENDPROC       GLHST_PAUSE
  -------         PROC          GLHST_START
  C:3E06H         LINE#         60
  C:3E06H         LINE#         61
  C:3E06H         LINE#         63
  -------         ENDPROC       GLHST_START
  -------         PROC          _TIMER3_INT_INITIAL
  D:0007H         SYMBOL        u8TMDIV
  X:0230H         SYMBOL        u8RH3
  X:0231H         SYMBOL        u8RL3
  C:2F72H         LINE#         65
  C:2F7AH         LINE#         66
  C:2F7AH         LINE#         67
  C:2F7DH         LINE#         68
  C:2F9EH         LINE#         69
  C:2F9EH         LINE#         70
  C:2FA3H         LINE#         71
  C:2FABH         LINE#         72
  C:2FB3H         LINE#         73
  C:2FBBH         LINE#         74
  C:2FC3H         LINE#         75
BL51 BANKED LINKER/LOCATER V6.22.2.0                                                  09/18/2024  10:06:51  PAGE 49


  C:2FCBH         LINE#         76
  C:2FD3H         LINE#         77
  C:2FD9H         LINE#         78
  C:2FD9H         LINE#         79
  C:2FDCH         LINE#         80
  C:2FE2H         LINE#         81
  C:2FE6H         LINE#         82
  C:2FE9H         LINE#         83
  -------         ENDPROC       _TIMER3_INT_INITIAL
  -------         PROC          TIMER3_ISR
  C:3798H         LINE#         86
  C:37A7H         LINE#         88
  C:37AAH         LINE#         89
  C:37C3H         LINE#         90
  -------         ENDPROC       TIMER3_ISR
  -------         ENDMOD        GLH_SYS_TICK

  -------         MODULE        GLH_PWM
  C:0000H         SYMBOL        _ICE_DUMMY_
  D:00B1H         PUBLIC        P0M1
  D:00B3H         PUBLIC        P1M1
  D:00B2H         PUBLIC        P0M2
  D:0080H         PUBLIC        P0
  D:00B4H         PUBLIC        P1M2
  D:0090H         PUBLIC        P1
  D:00A0H         PUBLIC        P2
  D:00B0H         PUBLIC        P3
  B:00A8H.7       PUBLIC        EA
  D:00D8H         PUBLIC        PWMCON0
  D:00DFH         PUBLIC        PWMCON1
  D:00D1H         PUBLIC        PWMPH
  D:00A8H         PUBLIC        IE
  D:00D9H         PUBLIC        PWMPL
  D:00C7H         PUBLIC        TA
  D:00B8H         PUBLIC        IP
  B:00D8H.6       PUBLIC        LOAD
  B:0090H.0       PUBLIC        P10
  B:0090H.1       PUBLIC        P11
  B:0080H.3       PUBLIC        P03
  B:0090H.2       PUBLIC        P12
  B:0080H.4       PUBLIC        P04
  D:0098H         PUBLIC        SCON
  D:0088H         PUBLIC        TCON
  D:0091H         PUBLIC        SFRS
  D:00F8H         PUBLIC        SCON_1
  C:27F0H         PUBLIC        _GLHPWM_Init
  D:00E8H         PUBLIC        ADCCON0
  D:00C0H         PUBLIC        I2CON
  C:13B2H         PUBLIC        _GLHPWM_Set
  D:00C8H         PUBLIC        T2CON
  B:00D8H.7       PUBLIC        PWMRUN
  D:00D2H         PUBLIC        PWM0H
  D:00D6H         PUBLIC        PNP
  D:00D3H         PUBLIC        PWM1H
  D:00D4H         PUBLIC        PWM2H
  D:00D5H         PUBLIC        PWM3H
  D:00DAH         PUBLIC        PWM0L
BL51 BANKED LINKER/LOCATER V6.22.2.0                                                  09/18/2024  10:06:51  PAGE 50


  D:00C4H         PUBLIC        PWM4H
  D:00DBH         PUBLIC        PWM1L
  D:00C5H         PUBLIC        PWM5H
  D:00DCH         PUBLIC        PWM2L
  D:00DDH         PUBLIC        PWM3L
  D:00CCH         PUBLIC        PWM4L
  D:00CDH         PUBLIC        PWM5L
  D:00DEH         PUBLIC        PIOCON0
  D:00D0H         PUBLIC        PSW
  D:00C6H         PUBLIC        PIOCON1
  -------         PROC          _GLHPWM_INIT
  D:0007H         SYMBOL        u8Ch
  C:27F0H         LINE#         20
  C:27F0H         LINE#         21
  C:27F0H         LINE#         22
  C:27F4H         LINE#         23
  C:27F4H         LINE#         24
  C:27F6H         LINE#         25
  C:27FCH         LINE#         26
  C:27FFH         LINE#         27
  C:2801H         LINE#         28
  C:2801H         LINE#         30
  C:2805H         LINE#         31
  C:2805H         LINE#         32
  C:2807H         LINE#         33
  C:280DH         LINE#         34
  C:2810H         LINE#         35
  C:2812H         LINE#         36
  C:2812H         LINE#         38
  C:2816H         LINE#         39
  C:2816H         LINE#         40
  C:2818H         LINE#         41
  C:281EH         LINE#         42
  C:2821H         LINE#         43
  C:2823H         LINE#         44
  C:2823H         LINE#         46
  C:2827H         LINE#         47
  C:2827H         LINE#         48
  C:2829H         LINE#         49
  C:282FH         LINE#         50
  C:2832H         LINE#         51
  C:2834H         LINE#         52
  C:2834H         LINE#         64
  C:2838H         LINE#         65
  C:2838H         LINE#         66
  C:283AH         LINE#         67
  C:2840H         LINE#         68
  C:2853H         LINE#         69
  C:2856H         LINE#         70
  C:2858H         LINE#         71
  C:286BH         LINE#         72
  C:286BH         LINE#         74
  C:286EH         LINE#         75
  C:2871H         LINE#         76
  C:2874H         LINE#         77
  C:2877H         LINE#         84
  C:287AH         LINE#         87
BL51 BANKED LINKER/LOCATER V6.22.2.0                                                  09/18/2024  10:06:51  PAGE 51


  C:287CH         LINE#         88
  C:287EH         LINE#         90
  C:2882H         LINE#         91
  C:2882H         LINE#         92
  C:2885H         LINE#         93
  C:2885H         LINE#         95
  C:2889H         LINE#         96
  C:2889H         LINE#         97
  C:288CH         LINE#         98
  C:288CH         LINE#         100
  C:2890H         LINE#         101
  C:2890H         LINE#         102
  C:2893H         LINE#         103
  C:2893H         LINE#         105
  C:2897H         LINE#         106
  C:2897H         LINE#         107
  C:28B6H         LINE#         108
  C:28B6H         LINE#         115
  C:28BAH         LINE#         116
  C:28BAH         LINE#         117
  C:28BDH         LINE#         118
  C:28BDH         LINE#         119
  -------         ENDPROC       _GLHPWM_INIT
  -------         PROC          _GLHPWM_SET
  X:02CEH         SYMBOL        eCh
  X:02CFH         SYMBOL        u32Duty
  C:13B2H         LINE#         122
  C:13B7H         LINE#         123
  C:13B7H         LINE#         124
  C:13BAH         LINE#         125
  C:13BAH         LINE#         126
  C:13E9H         LINE#         127
  C:1415H         LINE#         128
  C:1415H         LINE#         130
  C:141CH         LINE#         131
  C:141CH         LINE#         132
  C:144BH         LINE#         133
  C:1477H         LINE#         134
  C:1477H         LINE#         136
  C:147EH         LINE#         137
  C:147EH         LINE#         138
  C:14ADH         LINE#         139
  C:14D9H         LINE#         140
  C:14D9H         LINE#         142
  C:14E0H         LINE#         143
  C:14E0H         LINE#         144
  C:150FH         LINE#         145
  C:153BH         LINE#         146
  C:153BH         LINE#         148
  C:1545H         LINE#         149
  C:1545H         LINE#         150
  C:1558H         LINE#         151
  C:1587H         LINE#         152
  C:15B3H         LINE#         153
  C:15C6H         LINE#         154
  C:15C6H         LINE#         156
  C:15D0H         LINE#         157
BL51 BANKED LINKER/LOCATER V6.22.2.0                                                  09/18/2024  10:06:51  PAGE 52


  C:15D0H         LINE#         158
  C:15E3H         LINE#         159
  C:1612H         LINE#         160
  C:163EH         LINE#         161
  C:1651H         LINE#         162
  C:1651H         LINE#         164
  C:1653H         LINE#         165
  -------         ENDPROC       _GLHPWM_SET
  -------         ENDMOD        GLH_PWM

  -------         MODULE        GLH_LT8920L
  C:0000H         SYMBOL        _ICE_DUMMY_
  C:3D05H         PUBLIC        RF24G_IsTxOrRxComplete
  D:00B1H         PUBLIC        P0M1
  D:00B3H         PUBLIC        P1M1
  D:00B2H         PUBLIC        P0M2
  D:0080H         PUBLIC        P0
  D:00B4H         PUBLIC        P1M2
  D:0090H         PUBLIC        P1
  D:00ACH         PUBLIC        P3M1
  D:00A0H         PUBLIC        P2
  D:00B0H         PUBLIC        P3
  D:00ADH         PUBLIC        P3M2
  D:00D8H         PUBLIC        PWMCON0
  D:00A8H         PUBLIC        IE
  D:00B8H         PUBLIC        IP
  C:3A76H         SYMBOL        iSpiReadByte
  B:00B0H.0       PUBLIC        P30
  D:0098H         PUBLIC        SCON
  B:0080H.5       PUBLIC        P05
  D:0088H         PUBLIC        TCON
  B:0080H.6       PUBLIC        P06
  B:0080H.7       PUBLIC        P07
  B:0090H.7       PUBLIC        P17
  C:3A4EH         SYMBOL        _iSpiWriteByte
  C:2A44H         PUBLIC        RF24G_Init
  C:3CA4H         PUBLIC        _RF24G_ReadReg
  D:00F8H         PUBLIC        SCON_1
  C:3CF3H         PUBLIC        _RF24G_WriteReg
  D:00E8H         PUBLIC        ADCCON0
  D:00C0H         PUBLIC        I2CON
  C:3A9BH         PUBLIC        RF24G_Change_0x38
  D:00C8H         PUBLIC        T2CON
  C:3185H         PUBLIC        _RF24G_ReadRxData
  C:3052H         PUBLIC        _RF24G_Tx
  X:03BDH         SYMBOL        s_u8ResH
  X:03BEH         SYMBOL        s_u8ResL
  D:00D0H         PUBLIC        PSW
  C:3B66H         PUBLIC        _RF24G_EnterRxMode
  C:3441H         SYMBOL        Com002E
  C:3441H         SYMBOL        L?0047
  C:346AH         SYMBOL        L?0048
  C:346DH         SYMBOL        L?0049
  C:3475H         SYMBOL        L?0052
  C:3483H         SYMBOL        L?0053
  C:3483H         SYMBOL        L?0054
  C:3489H         SYMBOL        L?0055
BL51 BANKED LINKER/LOCATER V6.22.2.0                                                  09/18/2024  10:06:51  PAGE 53


  -------         PROC          COM002E
  -------         ENDPROC       COM002E
  -------         PROC          _ISPIWRITEBYTE
  D:0007H         SYMBOL        u8Byte
  -------         DO            
  D:0006H         SYMBOL        u8Cnt
  -------         ENDDO         
  C:3A4EH         LINE#         22
  C:3A4EH         LINE#         23
  C:3A4EH         LINE#         24
  C:3A50H         LINE#         26
  C:3A5AH         LINE#         27
  C:3A5AH         LINE#         28
  C:3A5CH         LINE#         29
  C:3A5DH         LINE#         30
  C:3A5EH         LINE#         31
  C:3A62H         LINE#         32
  C:3A62H         LINE#         33
  C:3A64H         LINE#         34
  C:3A66H         LINE#         36
  C:3A66H         LINE#         37
  C:3A68H         LINE#         38
  C:3A68H         LINE#         39
  C:3A69H         LINE#         40
  C:3A6AH         LINE#         41
  C:3A6EH         LINE#         42
  C:3A70H         LINE#         43
  C:3A73H         LINE#         45
  C:3A75H         LINE#         46
  -------         ENDPROC       _ISPIWRITEBYTE
  -------         PROC          ISPIREADBYTE
  -------         DO            
  D:0007H         SYMBOL        u8Cnt
  D:0006H         SYMBOL        u8Ret
  -------         ENDDO         
  C:3A76H         LINE#         48
  C:3A76H         LINE#         49
  C:3A76H         LINE#         50
  C:3A79H         LINE#         52
  C:3A83H         LINE#         53
  C:3A83H         LINE#         54
  C:3A85H         LINE#         55
  C:3A86H         LINE#         56
  C:3A87H         LINE#         57
  C:3A8BH         LINE#         58
  C:3A8EH         LINE#         59
  C:3A8EH         LINE#         60
  C:3A91H         LINE#         61
  C:3A91H         LINE#         62
  C:3A92H         LINE#         63
  C:3A93H         LINE#         64
  C:3A95H         LINE#         65
  C:3A98H         LINE#         67
  C:3A9AH         LINE#         68
  -------         ENDPROC       ISPIREADBYTE
  C:3CEDH         SYMBOL        L?0051
  -------         PROC          L?0050
BL51 BANKED LINKER/LOCATER V6.22.2.0                                                  09/18/2024  10:06:51  PAGE 54


  -------         ENDPROC       L?0050
  C:3CEDH         SYMBOL        L?0051
  -------         PROC          _RF24G_WRITEREG
  D:0007H         SYMBOL        u8Reg
  D:0004H         SYMBOL        u16Value
  C:3CF3H         LINE#         70
  C:3CF3H         LINE#         71
  C:3CF3H         LINE#         72
  C:3CF5H         LINE#         73
  C:3CF8H         LINE#         74
  C:3CFDH         LINE#         75
  C:3D02H         LINE#         76
  C:3D04H         LINE#         77
  -------         ENDPROC       _RF24G_WRITEREG
  -------         PROC          _RF24G_READREG
  D:0007H         SYMBOL        u8Reg
  -------         DO            
  D:0004H         SYMBOL        u16Temp
  -------         ENDDO         
  C:3CA4H         LINE#         79
  C:3CA4H         LINE#         80
  C:3CA4H         LINE#         81
  C:3CA7H         LINE#         83
  C:3CA9H         LINE#         84
  C:3CB0H         LINE#         85
  C:3CB5H         LINE#         86
  C:3CB8H         LINE#         87
  C:3CBAH         LINE#         89
  C:3CBCH         LINE#         90
  -------         ENDPROC       _RF24G_READREG
  -------         PROC          RF24G_CHANGE_0X38
  -------         DO            
  X:03BCH         SYMBOL        s_bFlag
  -------         ENDDO         
  C:3A9BH         LINE#         93
  C:3A9BH         LINE#         94
  C:3A9BH         LINE#         97
  C:3AACH         LINE#         98
  C:3AAEH         LINE#         99
  C:3AAEH         LINE#         100
  C:3AB2H         LINE#         101
  C:3AB4H         LINE#         103
  C:3AB4H         LINE#         104
  C:3ABDH         LINE#         105
  C:3ABDH         LINE#         106
  -------         ENDPROC       RF24G_CHANGE_0X38
  -------         PROC          RF24G_INIT
  -------         DO            
  X:0230H         SYMBOL        u32WaitStartTime
  C:2A6CH         SYMBOL        ReTry
  -------         ENDDO         
  C:2A44H         LINE#         108
  C:2A44H         LINE#         109
  C:2A44H         LINE#         110
  C:2A4EH         LINE#         113
  C:2A54H         LINE#         114
  C:2A5AH         LINE#         115
BL51 BANKED LINKER/LOCATER V6.22.2.0                                                  09/18/2024  10:06:51  PAGE 55


  C:2A60H         LINE#         116
  C:2A66H         LINE#         118
  C:2A6CH         LINE#         120
  C:2A6CH         LINE#         126
  C:2A6EH         LINE#         128
  C:2A71H         LINE#         129
  C:2A76H         LINE#         131
  C:2A78H         LINE#         133
  C:2A7BH         LINE#         134
  C:2A80H         LINE#         137
  C:2A8FH         LINE#         138
  C:2A8FH         LINE#         139
  C:2A8FH         LINE#         140
  C:2A8FH         LINE#         148
  C:2A94H         LINE#         151
  C:2A97H         LINE#         160
  C:2AA0H         LINE#         167
  C:2AA9H         LINE#         180
  C:2AB0H         LINE#         187
  C:2AB7H         LINE#         191
  C:2AC0H         LINE#         192
  C:2AC9H         LINE#         201
  C:2AD2H         LINE#         219
  C:2ADAH         LINE#         227
  C:2AE3H         LINE#         237
  C:2AECH         LINE#         241
  C:2AF5H         LINE#         250
  -------         ENDPROC       RF24G_INIT
  -------         PROC          _RF24G_TX
  X:023DH         SYMBOL        pu8Data
  X:0240H         SYMBOL        u8Len
  X:0241H         SYMBOL        u8Ch
  -------         DO            
  D:0005H         SYMBOL        i
  -------         ENDDO         
  C:3052H         LINE#         252
  C:3060H         LINE#         253
  C:3060H         LINE#         254
  C:3062H         LINE#         256
  C:3074H         LINE#         257
  C:3074H         LINE#         259
  C:3074H         LINE#         262
  C:3078H         LINE#         264
  C:307BH         LINE#         267
  C:307DH         LINE#         268
  C:3082H         LINE#         269
  C:3087H         LINE#         270
  C:3093H         LINE#         271
  C:3093H         LINE#         272
  C:30A3H         LINE#         273
  C:30A6H         LINE#         274
  C:30A8H         LINE#         276
  C:30ABH         LINE#         278
  C:30B8H         LINE#         279
  -------         ENDPROC       _RF24G_TX
  -------         PROC          _RF24G_ENTERRXMODE
  D:0003H         SYMBOL        u8Ch
BL51 BANKED LINKER/LOCATER V6.22.2.0                                                  09/18/2024  10:06:51  PAGE 56


  C:3B66H         LINE#         281
  C:3B68H         LINE#         282
  C:3B68H         LINE#         284
  C:3B71H         LINE#         286
  C:3B74H         LINE#         287
  C:3B77H         LINE#         288
  C:3B7AH         LINE#         290
  -------         ENDPROC       _RF24G_ENTERRXMODE
  -------         PROC          _RF24G_READRXDATA
  X:022DH         SYMBOL        pu8RxData
  X:0230H         SYMBOL        pu8RxLen
  -------         DO            
  D:0005H         SYMBOL        i
  -------         ENDDO         
  C:3185H         LINE#         293
  C:3190H         LINE#         294
  C:3190H         LINE#         295
  C:3192H         LINE#         297
  C:3194H         LINE#         298
  C:3199H         LINE#         299
  C:31A5H         LINE#         300
  C:31B8H         LINE#         301
  C:31BDH         LINE#         302
  C:31CFH         LINE#         303
  C:31CFH         LINE#         304
  C:31E2H         LINE#         305
  C:31E5H         LINE#         306
  C:31E7H         LINE#         307
  -------         ENDPROC       _RF24G_READRXDATA
  -------         PROC          RF24G_ISTXORRXCOMPLETE
  -------         DO            
  D:0006H         SYMBOL        u16Temp
  -------         ENDDO         
  C:3D05H         LINE#         309
  C:3D05H         LINE#         310
  C:3D05H         LINE#         311
  C:3D07H         LINE#         313
  C:3D0CH         LINE#         315
  C:3D10H         LINE#         316
  C:3D10H         LINE#         317
  C:3D14H         LINE#         318
  C:3D14H         LINE#         319
  C:3D17H         LINE#         320
  C:3D17H         LINE#         322
  C:3D17H         LINE#         323
  C:3D1AH         LINE#         324
  C:3D1AH         LINE#         325
  C:3D1AH         LINE#         327
  C:3D1AH         LINE#         328
  C:3D1CH         LINE#         329
  C:3D1CH         LINE#         330
  -------         ENDPROC       RF24G_ISTXORRXCOMPLETE
  -------         ENDMOD        GLH_LT8920L

  -------         MODULE        GLH_FLASH
  C:0000H         SYMBOL        _ICE_DUMMY_
  C:3DD9H         PUBLIC        _GLHLASH_WriteByte
BL51 BANKED LINKER/LOCATER V6.22.2.0                                                  09/18/2024  10:06:51  PAGE 57


  C:3D4BH         PUBLIC        _GLHFLASH_EraseBlock
  C:339DH         PUBLIC        _GLHFLASH_ReadBytes
  C:3D8CH         PUBLIC        _GLHFLASH_ReadByte
  C:3E07H         PUBLIC        GLHFLASH_Init
  C:33EFH         PUBLIC        _GLHFLASH_WriteBytes
  C:3D9FH         PUBLIC        _GLHFLASH_ReadDevId
  C:3349H         SYMBOL        Com0010
  C:3349H         SYMBOL        L?0017
  C:3379H         SYMBOL        L?0018
  C:3381H         SYMBOL        L?0019
  C:3389H         SYMBOL        L?0020
  -------         PROC          COM0010
  -------         ENDPROC       COM0010
  -------         PROC          GLHFLASH_INIT
  C:3E07H         LINE#         20
  C:3E07H         LINE#         21
  C:3E07H         LINE#         23
  -------         ENDPROC       GLHFLASH_INIT
  -------         PROC          _GLHFLASH_ERASEBLOCK
  X:039BH         SYMBOL        u32Addr
  X:039FH         SYMBOL        u16Len
  C:3D4BH         LINE#         25
  C:3D51H         LINE#         26
  C:3D51H         LINE#         27
  -------         ENDPROC       _GLHFLASH_ERASEBLOCK
  -------         PROC          _GLHFLASH_READBYTE
  X:03B4H         SYMBOL        u32Addr
  -------         DO            
  D:0007H         SYMBOL        u8Temp
  -------         ENDDO         
  C:3D8CH         LINE#         30
  C:3D92H         LINE#         31
  C:3D92H         LINE#         32
  C:3D92H         LINE#         34
  -------         ENDPROC       _GLHFLASH_READBYTE
  -------         PROC          _GLHLASH_WRITEBYTE
  D:0004H         SYMBOL        u32Addr
  X:03AAH         SYMBOL        u8Byte
  C:3DD9H         LINE#         39
  C:3DD9H         LINE#         40
  C:3DD9H         LINE#         41
  -------         ENDPROC       _GLHLASH_WRITEBYTE
  -------         PROC          _GLHFLASH_READBYTES
  X:0230H         SYMBOL        u32Addr
  X:0234H         SYMBOL        pu8Buff
  X:0237H         SYMBOL        u16Len
  C:339DH         LINE#         44
  C:33AEH         LINE#         45
  C:33AEH         LINE#         46
  C:33D7H         LINE#         47
  C:33D7H         LINE#         49
  C:33D7H         LINE#         51
  C:33EEH         LINE#         52
  -------         ENDPROC       _GLHFLASH_READBYTES
  -------         PROC          _GLHFLASH_WRITEBYTES
  X:022CH         SYMBOL        u32Addr
  X:0230H         SYMBOL        pu8Buff
BL51 BANKED LINKER/LOCATER V6.22.2.0                                                  09/18/2024  10:06:51  PAGE 58


  X:0233H         SYMBOL        u16Len
  C:33EFH         LINE#         55
  C:3400H         LINE#         56
  C:3400H         LINE#         57
  C:3429H         LINE#         58
  C:3429H         LINE#         60
  C:3429H         LINE#         62
  C:3440H         LINE#         63
  -------         ENDPROC       _GLHFLASH_WRITEBYTES
  -------         PROC          _GLHFLASH_READDEVID
  D:0001H         SYMBOL        pu8Buff
  C:3D9FH         LINE#         65
  C:3D9FH         LINE#         66
  C:3D9FH         LINE#         67
  -------         ENDPROC       _GLHFLASH_READDEVID
  -------         ENDMOD        GLH_FLASH

  -------         MODULE        GLH_DELAY
  C:0000H         SYMBOL        _ICE_DUMMY_
  C:34E1H         PUBLIC        _GLHDL_DelayMs
  C:3D62H         PUBLIC        _GLHDL_DelayUs
  -------         PROC          _GLHDL_DELAYMS
  X:023DH         SYMBOL        ms
  -------         DO            
  X:023FH         SYMBOL        i
  -------         ENDDO         
  C:34E1H         LINE#         17
  C:34E9H         LINE#         18
  C:34E9H         LINE#         19
  C:34EEH         LINE#         21
  C:34FCH         LINE#         22
  C:34FCH         LINE#         23
  C:3503H         LINE#         24
  C:3503H         LINE#         25
  C:3504H         LINE#         26
  C:351EH         LINE#         28
  C:3521H         LINE#         29
  C:3523H         LINE#         30
  -------         ENDPROC       _GLHDL_DELAYMS
  -------         PROC          _GLHDL_DELAYUS
  D:0006H         SYMBOL        us
  C:3D62H         LINE#         32
  C:3D62H         LINE#         33
  C:3D62H         LINE#         34
  C:3D6CH         LINE#         35
  C:3D6CH         LINE#         36
  C:3D6DH         LINE#         37
  C:3D6EH         LINE#         38
  C:3D6FH         LINE#         39
  C:3D70H         LINE#         40
  C:3D71H         LINE#         41
  C:3D72H         LINE#         42
  C:3D73H         LINE#         43
  C:3D74H         LINE#         44
  C:3D75H         LINE#         45
  C:3D77H         LINE#         46
  -------         ENDPROC       _GLHDL_DELAYUS
BL51 BANKED LINKER/LOCATER V6.22.2.0                                                  09/18/2024  10:06:51  PAGE 59


  -------         ENDMOD        GLH_DELAY

  -------         MODULE        GLH_WATCHDOG
  C:0000H         SYMBOL        _ICE_DUMMY_
  D:0080H         PUBLIC        P0
  D:0090H         PUBLIC        P1
  C:3E09H         PUBLIC        GLHWD_Stop
  D:00A0H         PUBLIC        P2
  D:00B0H         PUBLIC        P3
  B:00A8H.7       PUBLIC        EA
  D:00D8H         PUBLIC        PWMCON0
  D:00A8H         PUBLIC        IE
  D:00C7H         PUBLIC        TA
  D:00B8H         PUBLIC        IP
  D:0098H         PUBLIC        SCON
  D:0088H         PUBLIC        TCON
  C:3D78H         PUBLIC        GLHWD_Clear
  D:00F8H         PUBLIC        SCON_1
  D:00E8H         PUBLIC        ADCCON0
  D:00C0H         PUBLIC        I2CON
  D:00C8H         PUBLIC        T2CON
  C:3E08H         PUBLIC        GLHWD_Start
  C:375EH         PUBLIC        GLHWD_Init
  D:00D0H         PUBLIC        PSW
  D:00AAH         PUBLIC        WDCON
  -------         PROC          GLHWD_INIT
  C:375EH         LINE#         17
  C:375EH         LINE#         18
  C:375EH         LINE#         19
  C:3760H         LINE#         20
  C:3769H         LINE#         21
  C:377CH         LINE#         22
  C:3782H         LINE#         23
  C:3784H         LINE#         24
  C:3797H         LINE#         25
  -------         ENDPROC       GLHWD_INIT
  -------         PROC          GLHWD_START
  C:3E08H         LINE#         27
  C:3E08H         LINE#         28
  C:3E08H         LINE#         30
  -------         ENDPROC       GLHWD_START
  -------         PROC          GLHWD_STOP
  C:3E09H         LINE#         32
  C:3E09H         LINE#         33
  C:3E09H         LINE#         35
  -------         ENDPROC       GLHWD_STOP
  -------         PROC          GLHWD_CLEAR
  C:3D78H         LINE#         37
  C:3D78H         LINE#         38
  C:3D78H         LINE#         39
  C:3D8BH         LINE#         40
  -------         ENDPROC       GLHWD_CLEAR
  -------         ENDMOD        GLH_WATCHDOG

  -------         MODULE        GLH_OVER_CURRENT_PROTECT
  C:0000H         SYMBOL        _ICE_DUMMY_
  D:0080H         PUBLIC        P0
BL51 BANKED LINKER/LOCATER V6.22.2.0                                                  09/18/2024  10:06:51  PAGE 60


  D:0090H         PUBLIC        P1
  D:00A0H         PUBLIC        P2
  D:00B0H         PUBLIC        P3
  C:35EAH         PUBLIC        GLHOCP_MainThread
  D:00D8H         PUBLIC        PWMCON0
  D:00A8H         PUBLIC        IE
  D:00B8H         PUBLIC        IP
  D:00FBH         PUBLIC        PMEN
  D:0098H         PUBLIC        SCON
  D:0088H         PUBLIC        TCON
  C:3DCCH         PUBLIC        GLHOCP_Init
  C:31E8H         PUBLIC        Port_IRQHandler
  D:00F8H         PUBLIC        SCON_1
  D:009BH         PUBLIC        EIE
  X:03ABH         SYMBOL        s_u32OverCurrentStartTime
  D:00E8H         PUBLIC        ADCCON0
  D:00C0H         PUBLIC        I2CON
  D:00ECH         PUBLIC        PIF
  D:00FCH         PUBLIC        PMD
  D:00C8H         PUBLIC        T2CON
  X:03AFH         SYMBOL        s_bIsOverCurrent
  D:00E9H         PUBLIC        PICON
  D:00D0H         PUBLIC        PSW
  D:00EAH         PUBLIC        PINEN
  D:00EBH         PUBLIC        PIPEN
  -------         PROC          GLHOCP_INIT
  C:3DCCH         LINE#         25
  C:3DCCH         LINE#         26
  C:3DCCH         LINE#         33
  C:3DCFH         LINE#         34
  C:3DD2H         LINE#         35
  C:3DD5H         LINE#         36
  C:3DD8H         LINE#         37
  -------         ENDPROC       GLHOCP_INIT
  -------         PROC          GLHOCP_MAINTHREAD
  C:35EAH         LINE#         39
  C:35EAH         LINE#         40
  C:35EAH         LINE#         41
  C:35F2H         LINE#         42
  C:35F2H         LINE#         43
  C:361EH         LINE#         44
  C:361EH         LINE#         45
  C:3623H         LINE#         46
  C:3625H         LINE#         47
  C:362AH         LINE#         48
  C:362AH         LINE#         49
  C:362AH         LINE#         50
  -------         ENDPROC       GLHOCP_MAINTHREAD
  -------         PROC          PORT_IRQHANDLER
  C:31E8H         LINE#         52
  C:3205H         LINE#         54
  C:320AH         LINE#         55
  C:320AH         LINE#         56
  C:320DH         LINE#         58
  C:3210H         LINE#         59
  C:3213H         LINE#         60
  C:3218H         LINE#         61
BL51 BANKED LINKER/LOCATER V6.22.2.0                                                  09/18/2024  10:06:51  PAGE 61


  C:321EH         LINE#         62
  C:322CH         LINE#         63
  C:322CH         LINE#         64
  -------         ENDPROC       PORT_IRQHANDLER
  -------         ENDMOD        GLH_OVER_CURRENT_PROTECT

  -------         MODULE        SYS
  C:0000H         SYMBOL        _ICE_DUMMY_
  D:0080H         PUBLIC        P0
  D:0090H         PUBLIC        P1
  D:00A0H         PUBLIC        P2
  D:00B0H         PUBLIC        P3
  D:0084H         PUBLIC        RCTRIM0
  D:0085H         PUBLIC        RCTRIM1
  B:00A8H.7       PUBLIC        EA
  D:00D8H         PUBLIC        PWMCON0
  D:00A8H         PUBLIC        IE
  D:00C7H         PUBLIC        TA
  D:00B8H         PUBLIC        IP
  C:3566H         PUBLIC        MODIFY_HIRC_24
  C:3901H         PUBLIC        MODIFY_HIRC_16
  D:0087H         PUBLIC        PCON
  B:0020H.0       PUBLIC        BIT_TMP
  D:0098H         PUBLIC        SCON
  D:0088H         PUBLIC        TCON
  D:009FH         PUBLIC        CHPCON
  D:00F8H         PUBLIC        SCON_1
  D:00A4H         PUBLIC        IAPTRG
  C:35A8H         PUBLIC        MODIFY_HIRC_166
  D:00E8H         PUBLIC        ADCCON0
  D:00C0H         PUBLIC        I2CON
  D:00A7H         PUBLIC        IAPAH
  D:00AEH         PUBLIC        IAPFD
  D:00C8H         PUBLIC        T2CON
  D:00A6H         PUBLIC        IAPAL
  D:00AFH         PUBLIC        IAPCN
  D:00D0H         PUBLIC        PSW
  C:3ABEH         SYMBOL        Com0006
  C:3ABEH         SYMBOL        L?0007
  C:3AC4H         SYMBOL        L?0008
  C:3ACAH         SYMBOL        L?0009
  C:3AD1H         SYMBOL        L?0010
  C:3AD1H         SYMBOL        L?0011
  C:3AD9H         SYMBOL        L?0012
  C:3AD9H         SYMBOL        L?0013
  -------         PROC          COM0006
  -------         ENDPROC       COM0006
  -------         PROC          MODIFY_HIRC_16
  -------         DO            
  D:0010H         SYMBOL        hircmap0
  D:0011H         SYMBOL        hircmap1
  -------         ENDDO         
  C:3901H         LINE#         18
  C:3901H         LINE#         19
  C:3901H         LINE#         21
  C:390BH         LINE#         22
  C:390EH         LINE#         23
BL51 BANKED LINKER/LOCATER V6.22.2.0                                                  09/18/2024  10:06:51  PAGE 62


  C:390EH         LINE#         24
  C:390EH         LINE#         25
  C:3914H         LINE#         26
  C:3917H         LINE#         27
  C:391AH         LINE#         28
  C:391CH         LINE#         29
  C:3922H         LINE#         30
  C:3925H         LINE#         31
  C:392BH         LINE#         32
  C:392BH         LINE#         33
  C:392EH         LINE#         34
  C:3931H         LINE#         35
  C:3931H         LINE#         36
  C:3934H         LINE#         37
  C:3937H         LINE#         38
  -------         ENDPROC       MODIFY_HIRC_16
  -------         PROC          MODIFY_HIRC_24
  -------         DO            
  D:000CH         SYMBOL        hircmap0
  D:000DH         SYMBOL        hircmap1
  -------         ENDDO         
  C:3566H         LINE#         41
  C:3566H         LINE#         42
  C:3566H         LINE#         45
  C:356BH         LINE#         46
  C:356BH         LINE#         47
  C:3575H         LINE#         48
  C:3578H         LINE#         49
  C:3578H         LINE#         50
  C:3578H         LINE#         51
  C:357EH         LINE#         52
  C:3581H         LINE#         53
  C:3584H         LINE#         54
  C:3586H         LINE#         55
  C:358CH         LINE#         56
  C:358FH         LINE#         57
  C:3595H         LINE#         58
  C:3595H         LINE#         59
  C:3598H         LINE#         60
  C:359BH         LINE#         61
  C:359BH         LINE#         62
  C:359EH         LINE#         63
  C:35A1H         LINE#         64
  C:35A7H         LINE#         65
  C:35A7H         LINE#         66
  -------         ENDPROC       MODIFY_HIRC_24
  -------         PROC          MODIFY_HIRC_166
  -------         DO            
  D:000EH         SYMBOL        hircmap0
  D:000FH         SYMBOL        hircmap1
  D:0006H         SYMBOL        trimvalue16bit
  -------         ENDDO         
  C:35A8H         LINE#         74
  C:35A8H         LINE#         75
  C:35A8H         LINE#         79
  C:35ADH         LINE#         80
  C:35ADH         LINE#         81
BL51 BANKED LINKER/LOCATER V6.22.2.0                                                  09/18/2024  10:06:51  PAGE 63


  C:35B0H         LINE#         82
  C:35B3H         LINE#         83
  C:35C6H         LINE#         84
  C:35CEH         LINE#         85
  C:35D3H         LINE#         86
  C:35DAH         LINE#         87
  C:35DAH         LINE#         88
  C:35DDH         LINE#         89
  C:35E0H         LINE#         90
  C:35E0H         LINE#         91
  C:35E3H         LINE#         92
  C:35E6H         LINE#         94
  C:35E9H         LINE#         95
  C:35E9H         LINE#         96
  -------         ENDPROC       MODIFY_HIRC_166
  -------         ENDMOD        SYS

  -------         MODULE        EEPROM
  C:0000H         SYMBOL        _ICE_DUMMY_
  D:0080H         PUBLIC        P0
  D:0090H         PUBLIC        P1
  D:00A0H         PUBLIC        P2
  D:00B0H         PUBLIC        P3
  B:00A8H.7       PUBLIC        EA
  D:00D8H         PUBLIC        PWMCON0
  D:00A8H         PUBLIC        IE
  C:2093H         PUBLIC        _Write_DATAFLASH_BYTE
  D:00C7H         PUBLIC        TA
  D:00B8H         PUBLIC        IP
  D:0098H         PUBLIC        SCON
  D:0088H         PUBLIC        TCON
  D:009FH         PUBLIC        CHPCON
  D:00A5H         PUBLIC        IAPUEN
  D:00F8H         PUBLIC        SCON_1
  D:00A4H         PUBLIC        IAPTRG
  C:30B9H         PUBLIC        _Read_DATAFLASH_ARRAY
  D:00E8H         PUBLIC        ADCCON0
  D:00C0H         PUBLIC        I2CON
  C:2986H         PUBLIC        _Write_DATAFLASH_ARRAY
  D:00A7H         PUBLIC        IAPAH
  D:00AEH         PUBLIC        IAPFD
  D:00C8H         PUBLIC        T2CON
  D:00A6H         PUBLIC        IAPAL
  D:00AFH         PUBLIC        IAPCN
  C:1654H         PUBLIC        _WriteDataToOnePage
  C:3DE1H         PUBLIC        _Read_APROM_BYTE
  D:00D0H         PUBLIC        PSW
  X:02D3H         PUBLIC        page_buffer
  -------         PROC          _READ_APROM_BYTE
  D:0082H         SYMBOL        u16_addr
  -------         DO            
  D:0007H         SYMBOL        rdata
  -------         ENDDO         
  C:3DE1H         LINE#         23
  C:3DE5H         LINE#         24
  C:3DE5H         LINE#         26
  C:3DE8H         LINE#         27
BL51 BANKED LINKER/LOCATER V6.22.2.0                                                  09/18/2024  10:06:51  PAGE 64


  C:3DE8H         LINE#         28
  -------         ENDPROC       _READ_APROM_BYTE
  -------         PROC          _WRITE_DATAFLASH_BYTE
  X:03B8H         SYMBOL        u16EPAddr
  D:0005H         SYMBOL        u8EPData
  -------         DO            
  D:0004H         SYMBOL        looptmp
  X:03BAH         SYMBOL        u16_addrl_r
  D:0006H         SYMBOL        RAMtmp
  -------         ENDDO         
  C:2093H         LINE#         38
  C:209BH         LINE#         39
  C:209BH         LINE#         40
  C:209DH         LINE#         45
  C:20BFH         LINE#         47
  C:20CBH         LINE#         48
  C:20CBH         LINE#         49
  C:20DFH         LINE#         50
  C:20EBH         LINE#         51
  C:20EEH         LINE#         53
  C:2101H         LINE#         56
  C:210AH         LINE#         57
  C:210DH         LINE#         58
  C:2110H         LINE#         59
  C:2123H         LINE#         60
  C:2136H         LINE#         61
  C:2139H         LINE#         62
  C:214CH         LINE#         65
  C:215FH         LINE#         66
  C:2172H         LINE#         67
  C:2175H         LINE#         68
  C:217FH         LINE#         69
  C:217FH         LINE#         70
  C:2189H         LINE#         71
  C:218CH         LINE#         72
  C:2199H         LINE#         73
  C:21ACH         LINE#         74
  C:21AFH         LINE#         75
  C:21C2H         LINE#         76
  C:21D5H         LINE#         77
  -------         ENDPROC       _WRITE_DATAFLASH_BYTE
  -------         PROC          _WRITE_DATAFLASH_ARRAY
  X:0235H         SYMBOL        u16_addr
  X:0237H         SYMBOL        pDat
  X:023AH         SYMBOL        num
  -------         DO            
  D:0003H         SYMBOL        CPageAddr
  X:023CH         SYMBOL        EPageAddr
  D:0005H         SYMBOL        cnt
  -------         ENDDO         
  C:2986H         LINE#         81
  C:2997H         LINE#         82
  C:2997H         LINE#         84
  C:29ABH         LINE#         85
  C:29C5H         LINE#         86
  C:29CCH         LINE#         87
  C:29CCH         LINE#         88
BL51 BANKED LINKER/LOCATER V6.22.2.0                                                  09/18/2024  10:06:51  PAGE 65


  C:29E8H         LINE#         89
  C:29F5H         LINE#         90
  C:29FEH         LINE#         91
  C:2A0CH         LINE#         92
  C:2A1DH         LINE#         93
  C:2A1FH         LINE#         94
  C:2A2AH         LINE#         95
  C:2A2AH         LINE#         96
  C:2A43H         LINE#         97
  C:2A43H         LINE#         98
  -------         ENDPROC       _WRITE_DATAFLASH_ARRAY
  -------         PROC          _READ_DATAFLASH_ARRAY
  X:0239H         SYMBOL        u16_addr
  X:023BH         SYMBOL        pDat
  X:023EH         SYMBOL        num
  -------         DO            
  X:0240H         SYMBOL        i
  -------         ENDDO         
  C:30B9H         LINE#         100
  C:30CAH         LINE#         101
  C:30CAH         LINE#         103
  C:30E5H         LINE#         104
  C:311FH         LINE#         105
  -------         ENDPROC       _READ_DATAFLASH_ARRAY
  -------         PROC          _WRITEDATATOONEPAGE
  X:023DH         SYMBOL        u16_addr
  X:023FH         SYMBOL        pDat
  X:0242H         SYMBOL        num
  -------         DO            
  X:0243H         SYMBOL        i
  X:0244H         SYMBOL        offset
  X:0245H         SYMBOL        pCode
  X:0247H         SYMBOL        xd_tmp
  C:178EH         SYMBOL        WriteDataToPage20
  -------         ENDDO         
  C:1654H         LINE#         108
  C:1665H         LINE#         109
  C:1665H         LINE#         114
  C:1678H         LINE#         115
  C:168BH         LINE#         117
  C:169AH         LINE#         118
  C:16A3H         LINE#         119
  C:16B1H         LINE#         120
  C:16B9H         LINE#         121
  C:16CAH         LINE#         122
  C:16CAH         LINE#         123
  C:16DDH         LINE#         124
  C:16E5H         LINE#         125
  C:16EFH         LINE#         126
  C:16EFH         LINE#         127
  C:16F2H         LINE#         128
  C:16FBH         LINE#         129
  C:16FEH         LINE#         130
  C:170FH         LINE#         131
  C:170FH         LINE#         132
  C:1724H         LINE#         133
  C:1737H         LINE#         134
BL51 BANKED LINKER/LOCATER V6.22.2.0                                                  09/18/2024  10:06:51  PAGE 66


  C:1739H         LINE#         135
  C:1741H         LINE#         136
  C:1752H         LINE#         137
  C:1752H         LINE#         138
  C:1779H         LINE#         139
  C:1781H         LINE#         140
  C:178EH         LINE#         141
  C:178EH         LINE#         143
  C:178EH         LINE#         144
  C:178EH         LINE#         145
  C:179FH         LINE#         146
  C:17B1H         LINE#         147
  C:17B1H         LINE#         148
  C:17D0H         LINE#         149
  C:17D8H         LINE#         150
  C:17E8H         LINE#         151
  C:17E8H         LINE#         152
  C:1811H         LINE#         153
  C:1819H         LINE#         155
  C:1819H         LINE#         156
  C:1824H         LINE#         157
  C:1827H         LINE#         158
  C:182AH         LINE#         159
  C:182DH         LINE#         160
  C:1840H         LINE#         161
  C:1843H         LINE#         162
  C:1856H         LINE#         163
  C:1856H         LINE#         164
  C:1863H         LINE#         165
  C:1876H         LINE#         166
  C:1878H         LINE#         167
  C:1880H         LINE#         168
  C:1895H         LINE#         169
  C:1895H         LINE#         170
  C:18B8H         LINE#         171
  C:18C0H         LINE#         172
  C:18C9H         LINE#         174
  C:18C9H         LINE#         175
  C:18DCH         LINE#         177
  C:18E1H         LINE#         178
  -------         ENDPROC       _WRITEDATATOONEPAGE
  -------         ENDMOD        EEPROM

  -------         MODULE        ?C?FPMUL
  C:0086H         PUBLIC        ?C?FPMUL
  -------         ENDMOD        ?C?FPMUL

  -------         MODULE        ?C?FPDIV
  C:018FH         PUBLIC        ?C?FPDIV
  -------         ENDMOD        ?C?FPDIV

  -------         MODULE        ?C?FCAST
  C:0236H         PUBLIC        ?C?FCASTC
  C:0231H         PUBLIC        ?C?FCASTI
  C:022CH         PUBLIC        ?C?FCASTL
  -------         ENDMOD        ?C?FCAST

BL51 BANKED LINKER/LOCATER V6.22.2.0                                                  09/18/2024  10:06:51  PAGE 67


  -------         MODULE        ?C?CASTF
  C:026AH         PUBLIC        ?C?CASTF
  -------         ENDMOD        ?C?CASTF

  -------         MODULE        ?C?COPY
  C:03BBH         PUBLIC        ?C?COPY
  -------         ENDMOD        ?C?COPY

  -------         MODULE        ?C?CLDPTR
  C:03E1H         PUBLIC        ?C?CLDPTR
  -------         ENDMOD        ?C?CLDPTR

  -------         MODULE        ?C?CLDOPTR
  C:03FAH         PUBLIC        ?C?CLDOPTR
  -------         ENDMOD        ?C?CLDOPTR

  -------         MODULE        ?C?CSTPTR
  C:0427H         PUBLIC        ?C?CSTPTR
  -------         ENDMOD        ?C?CSTPTR

  -------         MODULE        ?C?CSTOPTR
  C:0439H         PUBLIC        ?C?CSTOPTR
  -------         ENDMOD        ?C?CSTOPTR

  -------         MODULE        ?C?IMUL
  C:045BH         PUBLIC        ?C?IMUL
  -------         ENDMOD        ?C?IMUL

  -------         MODULE        ?C?UIDIV
  C:046DH         PUBLIC        ?C?UIDIV
  -------         ENDMOD        ?C?UIDIV

  -------         MODULE        ?C?IILDX
  C:04C2H         PUBLIC        ?C?IILDX
  -------         ENDMOD        ?C?IILDX

  -------         MODULE        ?C?ILDIX
  C:04D8H         PUBLIC        ?C?ILDIX
  -------         ENDMOD        ?C?ILDIX

  -------         MODULE        ?C?LMUL
  C:04EEH         PUBLIC        ?C?LMUL
  -------         ENDMOD        ?C?LMUL

  -------         MODULE        ?C?ULDIV
  C:0579H         PUBLIC        ?C?ULDIV
  -------         ENDMOD        ?C?ULDIV

  -------         MODULE        ?C?LNEG
  C:060BH         PUBLIC        ?C?LNEG
  -------         ENDMOD        ?C?LNEG

  -------         MODULE        ?C?ULCMP
  C:0619H         PUBLIC        ?C?ULCMP
  -------         ENDMOD        ?C?ULCMP

  -------         MODULE        ?C?ULSHR
BL51 BANKED LINKER/LOCATER V6.22.2.0                                                  09/18/2024  10:06:51  PAGE 68


  C:062AH         PUBLIC        ?C?ULSHR
  -------         ENDMOD        ?C?ULSHR

  -------         MODULE        ?C?LSHL
  C:063DH         PUBLIC        ?C?LSHL
  -------         ENDMOD        ?C?LSHL

  -------         MODULE        ?C?LSTXDATA
  C:0650H         PUBLIC        ?C?LSTXDATA
  -------         ENDMOD        ?C?LSTXDATA

  -------         MODULE        ?C?LSTKXDATA
  C:065CH         PUBLIC        ?C?LSTKXDATA
  -------         ENDMOD        ?C?LSTKXDATA

  -------         MODULE        ?C?CCASE
  C:068DH         PUBLIC        ?C?CCASE
  -------         ENDMOD        ?C?CCASE

  -------         MODULE        ?C?ICALL
  C:06B3H         PUBLIC        ?C?ICALL
  C:06B7H         PUBLIC        ?C?ICALL2
  -------         ENDMOD        ?C?ICALL

  -------         MODULE        ?C?LIMUL
  C:06B9H         PUBLIC        ?C?LIMUL
  -------         ENDMOD        ?C?LIMUL

  -------         MODULE        ?C?MEMCMP
  C:086CH         PUBLIC        ?C?MEMCMP
  -------         ENDMOD        ?C?MEMCMP

  -------         MODULE        ?C?MEMSET
  C:0890H         PUBLIC        ?C?MEMSET
  -------         ENDMOD        ?C?MEMSET

*** WARNING L15: MULTIPLE CALL TO SEGMENT
    SEGMENT: ?PR?_GLHLM_STATICMODE?GLH_LED_MODE
    CALLER1: ?C_C51STARTUP
    CALLER2: ?PR?PORT_IRQHANDLER?GLH_OVER_CURRENT_PROTECT

*** WARNING L15: MULTIPLE CALL TO SEGMENT
    SEGMENT: ?PR?_GLHRGB_SETCOLOR?GLH_RGB
    CALLER1: ?C_C51STARTUP
    CALLER2: ?PR?PORT_IRQHANDLER?GLH_OVER_CURRENT_PROTECT

*** WARNING L15: MULTIPLE CALL TO SEGMENT
    SEGMENT: ?PR?_GLHPWM_SET?GLH_PWM
    CALLER1: ?C_C51STARTUP
    CALLER2: ?PR?PORT_IRQHANDLER?GLH_OVER_CURRENT_PROTECT

Program Size: data=19.1 xdata=959 code=15882
LINK/LOCATE RUN COMPLETE.  3 WARNING(S),  0 ERROR(S)
